:1000000061C0000087C0000085C0000083C0000000
:1000100081C000007FC000007DC000007BC00000E8
:1000200079C0000077C0000075C0000073C00000F8
:1000300071C000000C94D3246DC000006BC00000A0
:100040000C948D2867C000000C94AC2B0C94DE2B14
:1000500061C000005FC000005DC000005BC0000028
:1000600059C0000057C00000000000080002010055
:100070000003040700000000000000000102040863
:100080001020408001020408102001020408102002
:10009000040404040404040402020202020203032E
:1000A00003030303000000002300260029000000D2
:1000B0000000250028002B0000000000240027007D
:1000C0002A00032C11241FBECFEFD8E0DEBFCDBF26
:1000D00012E0A0E0B1E0E2E6F9E502C005900D9281
:1000E000A830B107D9F726E0A8E0B2E001C01D9220
:1000F000A031B207E1F710E0C2E6D0E004C02197DA
:10010000FE010E94802CC136D107C9F70E94EA2562
:100110000C94AF2C75CF611102C00C94F1296130A1
:10012000E1F362E0FACF0E945A2A21E0019709F038
:1001300020E0822F0895CF92DF92EF92FF92CF932B
:10014000882351F16A017B01CFEFC80F20E030E036
:10015000A901CB01B6010E94D72687FF11C0C701B4
:10016000B60190580E9448279B01AC016C2F70E0AB
:1001700090E080E0CF91FF90EF90DF90CF90B2C001
:10018000C701B6010E9443278C2FCF91FF90EF90BB
:10019000DF90CF900C946D29CF91FF90EF90DF907E
:1001A000CF9008950F931F938B019C0183E03695A8
:1001B0002795179507958A95D1F7085F1D4F462F0C
:1001C000477021E030E0F90102C0EE0FFF1F4A95B1
:1001D000E2F7AF01F80120812423CB010196211120
:1001E00002C090E080E01F910F9108950F931F933C
:1001F0008B019C0183E036952795179507958A9585
:10020000D1F7677081E090E001C0880F6A95EAF746
:10021000F801E85FFD4F2081452B31F48095822362
:1002200080831F910F910895822BFACF2F923F92D6
:100230004F925F926F927F928F929F92AF92BF92F6
:10024000CF92DF92EF92FF920F931F93CF93DF93A2
:10025000D62EC72E782E692E49015A01280161E059
:100260008D2D0E94F129CD2DDC2D8E010F5F1F4FAA
:10027000A8016D2D7C2D872D962DB8DF20E030E074
:10028000A901C201B7010E942628181664F4C20110
:10029000B7010E9448272B01C501B4010E944827DD
:1002A000A201CE0123D0C801DF91CF911F910F9100
:1002B000FF90EF90DF90CF90BF90AF909F908F9086
:1002C0007F906F905F904F903F902F90089588237C
:1002D00041F08150682F70E090E080E050E040E015
:1002E00085CF0895862FB9010C946D299C01FC01DE
:1002F000E859FF4FE491E33061F140F4E13011F14E
:10030000E23021F160E0822F0C942D2AE730C1F118
:10031000E83009F441C0E430A9F7809180008C7F77
:1003200082608093800090918100907E9061692B23
:1003300060938100509387004093860080918000F5
:1003400080621BC084B5806884BDDCCF84B58062C8
:10035000FBCF809180008C7F8260809380009091A1
:100360008100907E9061692B60938100509387009B
:100370004093860080918000806880938000C2CF87
:100380008091B00080688093B0008091B100887F38
:10039000682B6093B100B6CF8091B0008062F3CF3C
:1003A00090E080E008950F931F93009709F487C0B1
:1003B0006115710509F483C000914B0110914C0146
:1003C00020914D0130914E010E3F1F4F2F4F3F4F57
:1003D00009F066C04FEF5FEFBA0140934B015093B5
:1003E0004C0160934D0170934E0140914B0150912F
:1003F0004C0160914D0170914E01DC011296ED911E
:10040000FC9180819181A281B38180937F0290933E
:100410008002A0938102B093820284819581A6819B
:10042000B78180937B0290937C02A0937D02B0936E
:100430007E0280859185A285B38580937702909313
:100440007802A0937902B0937A0284859585A68577
:10045000B7858093730290937402A0937502B09352
:10046000760210926F021092700210927102109236
:100470007202A4D683E099E0909312028093110255
:10048000909314028093130288D5009731F421E0F1
:1004900030E030938402209383021F910F910895DE
:1004A00000914B0110914C0120914D0130914E0172
:1004B000DB010D931D932D933C93139796CF8FEFF4
:1004C0009FEFEBCF8F929F92AF92BF92CF92DF922E
:1004D000EF92FF921F93CF93DF934B015C0110913A
:1004E000860282E090E090938402809383028114DC
:1004F0009104A104B10441F480918602811104C0E9
:1005000080918502C1E08111C0E0C12CD12C76011F
:1005100080918602811106C080918502811102C0FE
:10052000CC23D9F083E090E09093840280938302FF
:10053000CC2379F1CCE9DFEF111102C00E94670CE6
:10054000CE01DF91CF911F91FF90EF90DF90CF9080
:10055000BF90AF909F908F9008956AE070E080E028
:1005600090E00E94FC2880E1C80E87E2D81EE11CC2
:10057000F11C8FEF88169806A806B80631F0C1E086
:100580008C149D04AE04BF0408F0C0E080E039D5AF
:10059000BFCFD0E0C0E0D0CFCF92DF92EF92FF92FA
:1005A0000F931F93CF93DF938F3F910511F008F0C6
:1005B00050C020918302309184022330310539F0FC
:1005C00020918302309184022130310531F424E0FE
:1005D00030E030938402209383026A017B01EC01B6
:1005E00082309105A0F011E0AE01C701B601D4D46C
:1005F000AB01BC01CE011123F9F0DF91CF911F9126
:100600000F91FF90EF90DF90CF900C94900E8C01A3
:10061000000F111F0F5E1D4FD8018D919C91892BEA
:1006200011F30E949A0E0297F1F6D801ED91FC9118
:10063000CE010995182FD8CF0E94B20E90E080E02D
:10064000DF91CF911F910F91FF90EF90DF90CF90AE
:1006500008958FEF9FEFF4CF80E0D3C4CF93DF9363
:1006600086E090E0909384028093830223D5EC018E
:10067000E1E1F2E084E0DF011D928A95E9F70E9452
:10068000FF0B1092840210928302CE01DF91CF9172
:10069000089580918502089580916E020895609377
:1006A0004B0170934C0180934D0190934E0190E06B
:1006B00080E008954F925F926F927F928F929F9207
:1006C000AF92BF92CF92DF92EF92FF92CF93DF93E0
:1006D00000D000D0CDB7DEB7C0901D01D0901E0174
:1006E000E0901F01F0902001A7019601609175052F
:1006F0007091760580917705909178050E94D726B4
:10070000882341F0C0927505D0927605E092770576
:10071000F092780588E007DD80930D0661E0909106
:10072000F805981708F060E060930B068091930538
:10073000680F60930C0680919405681B062E000CD0
:10074000770B880B990B0E9476276B017C01209117
:100750002501309126014091270150912801609197
:1007600021017091220180912301909124010E9426
:100770002A289B01AC01C701B6010E94DB2620910B
:10078000290130912A0140912B0150912C010E94A6
:100790002A286093FB057093FC058093FD059093D8
:1007A000FE0520912D0130912E0140912F01509195
:1007B00030010E94DB2620913101309132014091BD
:1007C0003301509134010E942A286B017C01C092B0
:1007D000FF05D0920006E0920106F09202062091F9
:1007E00035013091360140913701509138016091C7
:1007F00018017091190180911A0190911B010E94BA
:100800002A2860930306709304068093050690934C
:100810000606A70196010E9472266B017C012091B9
:1008200000013091010140910201509103010E94A9
:100830002A282091850530918605409187055091A1
:1008400088050E947226209110013091110140917B
:100850001201509113010E942A282B013C01209182
:100860001401309115014091160150911701C701F3
:10087000B6010E942A28209181053091820540917D
:100880008305509184050E947326A30192010E9462
:1008900073264B015C018091410190914201A0912E
:1008A0004301B091440189839A83AB83BC83A50142
:1008B0009401BC01CD010E94D72687FF04C1898124
:1008C0009A81AB81BC818093070690930806A09320
:1008D0000906B0930A0665E070E080E090E062DC13
:1008E0009A8389839093800580937F058090070683
:1008F00090900806A0900906B0900A0620E030E02B
:100900004FE753E4C501B4010E94D72618160CF432
:10091000F8C020E030E0A901C501B4010E942628FA
:1009200087FDF6C0B501A40189819A8104DC80911C
:100930000D068093F80580910C0680939305E4E9F9
:10094000F5E09181919395E0E73FF907D1F7809326
:10095000F705209104013091050140910601509165
:100960000701C701B6010E942A2820913901309160
:100970003A0140913B0150913C010E942A2820916C
:1009800081053091820540918305509184050E9434
:1009900073266093810570938205809383059093FD
:1009A000840520913D0130913E0140913F015091DD
:1009B0004001C301B2010E942A282091850530918F
:1009C000860540918705509188050E9473266093A3
:1009D0008505709386058093870590938805C09060
:1009E0004102D0904202E0904302F0904402AFEF07
:1009F000CA1ADA0AEA0AFA0AC0924102D0924202FC
:100A0000E0924302F0924402C114D104E104F104E3
:100A100099F48091450290914602A0914702B091CD
:100A200048020196A11DB11D809345029093460294
:100A3000A0934702B09348028090490290904A02E6
:100A4000A0904B02B0904C0260914502709146021A
:100A500080914702909148020E947427A501940159
:100A60000E942A2820E030E040E85FE40E942A2823
:100A70002B013C01C701B6010E947427A501940116
:100A80000E942A289B01AC01C301B2010E94732677
:100A900060933D0270933E0280933F029093400228
:100AA0000F900F900F900F90DF91CF91FF90EF90EC
:100AB000DF90CF90BF90AF909F908F907F906F907E
:100AC0005F904F9008958091450190914601A091CB
:100AD0004701B091480189839A83AB83BC83A50108
:100AE0009401BC01CD010E94262818160CF4E7CE13
:100AF0008092070690920806A0920906B0920A0614
:100B0000EACE812C912C8FE7A82E83E4B82E0ACF51
:100B1000812C912C540106CFCF92DF92EF92FF925D
:100B20000F931F93CF93E7E2F2E08BE2DF011D9278
:100B30008A95E9F780E090E0A0E8BFEB80934D0252
:100B400090934E02A0934F02B09350028FE692E131
:100B5000A3E0BAE38093490290934A02A0934B0228
:100B6000B0934C0280EB91E3AAE2B3E380932B02B3
:100B700090932C02A0932D02B0932E0284E797E469
:100B8000AAE3BAEB80932F0290933002A093310234
:100B9000B09332028EEF9CEDA2EFB8E18093330266
:100BA00090933402A0933502B093360285EB9AE716
:100BB000ABEEBFE78093370290933802A0933902DF
:100BC000B0933A028BE192E090932A02809329023B
:100BD00085E192E090931C0280931B0284E791E0F0
:100BE0009093160280931502909318028093170237
:100BF00090931A02809319028BE392E09093200263
:100C000080931F028BE292E090931E0280931D025C
:100C10008DE392E09093220280932102EBEFF5E0C6
:100C200083E1DF011D928A95E9F7EDE6F5E08EE8B4
:100C3000DF011D928A95E9F7C1E0C093FA05809122
:100C40001D0190911E01A0911F01B0912001809380
:100C5000750590937605A0937705B0937805C12C20
:100C6000D12C7601C394C0926E05D0926F05E092AC
:100C70007005F092710560E088E04DDAC09372056E
:100C800010927905C093F905C0927A05D0927B0540
:100C9000E0927C05F0927D05E12CF12C8701A80102
:100CA000970165E070E080E090E0C0DA9093800505
:100CB00080937F05C0937E0580911C018093F80589
:100CC000809149018093930580914A01E4E9F5E020
:100CD0008193B5E0E83FFB07D9F780910C01909133
:100CE0000D01A0910E01B0910F01809381059093A9
:100CF0008205A0938305B0938405809108019091AB
:100D00000901A0910A01B0910B0180938505909390
:100D10008605A0938705B0938805CF911F910F9109
:100D2000FF90EF90DF90CF90089580916D05811135
:100D300003C081E080936D058091790581112AC0FF
:100D400081E08093790580917A0590917B05A0914F
:100D50007C05B0917D050197A105B105D9F480917D
:100D60007E058823B9F065E070E080E090E01ADA53
:100D70009093800580937F0540E050E0BA01DBD975
:100D800065E070E080E090E00DDA9093800580935C
:100D90007F059DCA08954F925F926F927F928F92C6
:100DA0009F92AF92BF92CF92DF92EF92FF920F93FA
:100DB0001F93F89440905E0250905F026090600232
:100DC00070906102C0905202D0905302E0905402A1
:100DD000F0905502452B09F0A4C09B01AC012419E9
:100DE00035094609570929013A0100915A02109123
:100DF0005B0220915C0230915D0248015901840C34
:100E0000951CA61CB71C80169106A206B306A0F47A
:100E100000915602109157022091580230915902C8
:100E20000F5F1F4F2F4F3F4F0093560210935702F3
:100E3000209358023093590280925A0290925B029A
:100E4000A0925C02B0925D0200915602109157028E
:100E5000209158023091590280926202909263026E
:100E6000A0926402B092650200936602109367023A
:100E7000209368023093690260935E0270935F0270
:100E80008093600290936102A4EFB1E0A30192010C
:100E90000E94862C6C0D7D1D8E1D9F1D609352023D
:100EA00070935302809354029093550200914B012A
:100EB00010914C0120914D0130914E010F3F1F4F79
:100EC0002F4F3F4FF1F000914B0110914C012091B9
:100ED0004D0130914E010E3F1F4F2F4F3F4F89F074
:100EE000C0904B01D0904C01E0904D01F0904E012C
:100EF00021E08C149D04AE04BF0408F420E020938C
:100F00006E0278941F910F91FF90EF90DF90CF9039
:100F1000BF90AF909F908F907F906F905F904F9019
:100F200008954B015C0184189508A608B708A30131
:100F30009201261B370B480B590B64157505860566
:100F40009705D0F082169306A406B50640F420E07B
:100F500030E0A90181149104A104B10491F4A4EF3B
:100F6000B1E00E94862CA7019601261B370B480B87
:100F7000590BCA01B901C5CF82169306A406B5065E
:100F800070F7A4EFB1E0A50194010E94862C6C0DCE
:100F90007D1D8E1D9F1DB5CFFECECF93DF9300D05C
:100FA00000D0CDB7DEB71C821B821A821982109244
:100FB0006A0210926B0210926C0210926D02BE01D6
:100FC0006F5F7F4FCE0103960E94B72469817A81BB
:100FD0008B819C810E94A91D009761F4BE016F5F07
:100FE0007F4FCE0103960E94C32469817A818B8151
:100FF0009C812CD50F900F900F900F90DF91CF9187
:101000000895FF920F931F93CF93DF93082F60E013
:1010100070E0CB010E94FC28FF24F3940E94941CF2
:10102000EC01892B89F010E0CE3F8FEFD80769F0F3
:10103000002361F160E070E0CB010E94FC2881E0B8
:1010400090E0892B59F322C011E023D5EC01892BC4
:1010500021F0CE3F8FEFD80759F711111EC011E0D4
:10106000229609F410E00E94451CEC01892B21F026
:10107000CE3F8FEFD807E1F6111111C011E0CE3F3E
:101080008FEFD80709F410E001110BC0CE01DF91FA
:10109000CF911F910F91FF90089511E0E4CF11E0DF
:1010A000F3CF60E070E0CB010E94FC281F25812F68
:1010B00090E0C7CFCF93DF9380916E02882321F019
:1010C00060E070E0CB014CD635D6D0E0C0E0892B93
:1010D00071F06AE070E080E090E00E94FC2881E01E
:1010E00090DF28D62196C03D27E0D20781F727D68A
:1010F0000E94FD1D109286021092850210927F02BE
:1011000010928002109281021092820210927B0251
:1011100010927C0210927D0210927E021092770251
:10112000109278021092790210927A021092730251
:1011300010927402109275021092760210926F0251
:101140001092700210927102109272024EEF5FEFD5
:101150006FEF7FEF40934B0150934C0160934D0133
:1011600070934E0110926E02E2E6F2E028E0DF0199
:101170001D922A95E9F710925E0210925F0210927A
:1011800060021092610210925A0210925B02109259
:101190005C0210925D021092560210925702109259
:1011A0005802109259021092520210925302109259
:1011B000540210925502DF91CF910895109292023D
:1011C0001092930210929402109295021092910242
:1011D00080919A0290919B029093900280938F024B
:1011E00010928E0210928D021092890210928A0241
:1011F00010928B0210928C0210929702109296021B
:1012000090E080E00895CF92DF92EF92FF920F93EB
:101210001F93CF938C01892B09F055C020919A021E
:1012200030919B0280918F029091900240919A029E
:1012300050919B025093900240938F0228173907D8
:1012400081F010928E0210928D02109289021092FB
:101250008A0210928B0210928C02109297021092C6
:10126000960280919A0290919B02019761F580917C
:10127000960290919702892B21F480914F01811160
:1012800012C080919602909197020197E1F48091AB
:10129000890290918A02A0918B02B0918C020197F1
:1012A000A105B10581F41092890210928A02109270
:1012B0008B0210928C0210924F0182E090E090938A
:1012C00097028093960280919A0290919B020197D7
:1012D00009F01CC18091B0029091B1028017910772
:1012E00009F014C18091AC029091AD02A091AE02C0
:1012F000B091AF02009709F409C12091AB0221110E
:101300000DC04091AC025091AD026091AE0270915F
:10131000AF02452B462B472B09F4F8C020919602CB
:10132000309197022230310509F0F0C020918D02F2
:101330002111ECC0FC01C080D180E280F38080915B
:101340009102882309F4D3C080919D0290919E025E
:10135000892B09F4FDC020919D0230919E0281E00D
:101360002230310509F080E020919D0230919E02EB
:10137000C1E02130310549F020919D0230919E025B
:10138000C1E02230310509F0C0E0882309F456C0DD
:101390002091A7023091A8024091A9025091AA027F
:1013A000C701B6010E94262887FD14C02091A7021C
:1013B0003091A8024091A9025091AA026091920234
:1013C0007091930280919402909195020E94D72689
:1013D00087FD22C02091A7023091A8024091A90266
:1013E0005091AA02C701B6010E942628181634F5AA
:1013F0002091A7023091A8024091A9025091AA021F
:101400006091920270919302809194029091950262
:101410000E94D726811112C080919F029091A00254
:10142000A091A102B091A202892B8A2B8B2B19F4D7
:1014300081E080938E0281E080938D02CC2309F4B9
:1014400056C02091A7023091A8024091A902509164
:10145000AA02C701B6010E94D72687FF14C02091B7
:10146000A7023091A8024091A9025091AA0260916E
:1014700092027091930280919402909195020E9441
:10148000262887FF22C02091A7023091A802409110
:10149000A9025091AA02C701B6010E94D726811164
:1014A00026C02091A7023091A8024091A902509134
:1014B000AA0260919202709193028091940290919D
:1014C00095020E942628181694F480919F0290910C
:1014D000A002A091A102B091A202892B8A2B8B2B92
:1014E00019F481E080938E0281E080938D0281E087
:1014F00090918D02911180E080939102C0929202AE
:10150000D0929302E0929402F0929502012B09F09E
:1015100067C18091960290919702892BD9F410921D
:101520009C0210928D0280914F01882379F082E015
:1015300090E0909397028093960210924F01209131
:101540009A0230919B0281E0232BE9F080E01BC0DE
:1015500081E00ACF10924F0180919C02882349F0CC
:1015600010928E02109297021092960210929C0294
:10157000EDCF80919A0290919B02892BE1F08091AE
:101580008D0210928D0220919602309197022230A6
:10159000310509F45EC088F42115310509F448C00D
:1015A0002130310509F4F3C010928E0210928D02A1
:1015B00010929C0238C081E0E6CF2330310509F457
:1015C000B1C02430310581F74091890250918A02DF
:1015D00060918B0270918C02411551056105710576
:1015E00061F041505109610971094093890250939A
:1015F0008A0260938B0270938C0240918902509111
:101600008A0260918B0270918C02452B462B472BEE
:10161000D9F420919802309199022130310509F0D6
:1016200046C010928E0210929702109296020CC041
:1016300080914F01882341F082E090E090939702DF
:101640008093960210924F011092870280918E0231
:10165000CEC08823C9F380919F029091A002A091EF
:10166000A102B091A202181619061A061B060CF068
:101670007DC080919A0290919B02019709F076C0FB
:1016800080919F029091A002A091A102B091A2022C
:101690008093890290938A02A0938B02B0938C026C
:1016A00083E090E09093970280939602CDCF409193
:1016B000A3025091A4026091A5027091A602452B4D
:1016C000462B472BA9F010928E028091A302909195
:1016D000A402A091A502B091A602809389029093E2
:1016E0008A02A0938B02B0938C0281E090E0DACF63
:1016F000882399F08091500190915101A09152015D
:10170000B09153018093890290938A02A0938B0237
:10171000B0938C0284E090E0C5CF10928E0282E0FC
:1017200090E0C0CF8091890290918A02A0918B02B3
:10173000B0918C020097A105B10559F00197A1095C
:10174000B1098093890290938A02A0938B02B0938F
:101750008C028091890290918A02A0918B02B091B3
:101760008C02892B8A2B8B2B09F06ECF8091500134
:1017700090915101A0915201B0915301892B8A2B74
:101780008B2B09F44ECF81E080938E02B3CF409132
:10179000890250918A0260918B0270918C024115EE
:1017A00051056105710561F04150510961097109E7
:1017B0004093890250938A0260938B0270938C024B
:1017C0004091890250918A0260918B0270918C0243
:1017D000452B462B472B09F037CF8111C7CF9FCF21
:1017E00080918702882309F431CF80918802CF91BC
:1017F0001F910F91FF90EF90DF90CF90089510927E
:1018000092021092930210929402109295021092FA
:1018100091021092970210929602109290021092EA
:101820008F021092B1021092B00210928E021092AA
:101830008D021092890210928A0210928B021092ED
:101840008C0210928802109287021092AC021092C1
:10185000AD021092AE021092AF021092AB02109243
:10186000A7021092A8021092A9021092AA0288EE72
:1018700093E0A0E0B0E08093500190935101A093D9
:101880005201B09353011092A3021092A40210923D
:10189000A5021092A60210929F021092A00210922E
:1018A000A1021092A20210929E0210929D0281E06B
:1018B00080934F0110929C0210929B0210929A0208
:1018C000109299021092980290E080E00895809121
:1018D0009A0290919B02892B19F580914F018823E0
:1018E00051F080919C02811106C081E080938802B2
:1018F00080938702089520919C0230914F0181E0EE
:1019000090E0332311F090E080E030E082239323D5
:10191000892B21F01092880281E0EACF1092870291
:10192000089582E090E0FA01918380838FEF9FEF2A
:101930000895CF93DF93EA01009711F00E941D1FD5
:101940001982188290E080E0DF91CF910895DB0149
:10195000009719F48FEF8C9308952EEF2C930F9628
:101960008F30910508F033C0FC01E754F34F0C941D
:10197000802CE50CE30CE10CDF0CDD0CD90CDB0C4E
:10198000D70CD50CD30CD00CCC0CC80CCE0CE70C5F
:1019900080E311968C93089589E2FBCF82E2F9CF20
:1019A00011961C92089583E2F4CF81E2F2CF81E197
:1019B000F0CF87E2EECF8AE2ECCF80E1EACF84E29B
:1019C000E8CF88E2E6CF86E2E4CF81E3E2CF80E2AF
:1019D000E0CF8091BE029091BF0208959093BF0224
:1019E0008093BE0208958091BD0208959091BD023A
:1019F000892B8093BD020895982F90958091BD0208
:101A000089238093BD0208958091BC02089580913E
:101A1000BA029091BB0208956115710559F0FB015E
:101A200030E020E070E060E02417350719F0611520
:101A3000710511F0CB010895A081B181A817B907F4
:101A400009F4BF012F5F3F4F3696EECF8091C00261
:101A500081111CC062D268D29093B3028093B2020B
:101A60000E942D170E943F179093B7028093B602F1
:101A70000E94AF1B0E94B61B9093B5028093B402E4
:101A800081E08093C00290E080E0089584EF9FEFB2
:101A900008958F929F92AF92BF92CF92DF92EF9272
:101AA000FF920F931F93CF93DF93CDB7DEB72A97A3
:101AB0000FB6F894DEBF0FBECDBF1A861986188602
:101AC0001F821E821D821C821B821A8219828091B3
:101AD000C00207EF1FEF882309F49CC08E010D5F41
:101AE0001F4F9E012B5F3F4FAE01495F5F4FBE010D
:101AF000675F7F4F90E080E00E942F1D8C01009770
:101B000021F00596029708F0DBC029853A8521155A
:101B1000310509F402C1ED80FE804B815C81B70183
:101B2000640F751F8F8198858617970708F4F5C095
:101B3000E20EF31ED7019C91903C09F07FC0423029
:101B4000510508F47BC011968C914091BE025091D2
:101B5000BF02452B09F49CC0913F08F071C02CE1F5
:101B6000290F2D3008F48BC02DE2290F203108F405
:101B700089C0903C21F48150823008F483C088E30E
:101B8000890F8B3008F481C097EAC92E9CE0D92ECA
:101B9000E1E9FCE06D817E81AE014F5F5F4F898599
:101BA0009A8509955C01C114D104A1F189809A80BC
:101BB0008114910479F18B819C818815990508F431
:101BC00087C010E000E04B815C8170E060E0C701FD
:101BD0000E94A82C01151105E9F449815A816985F3
:101BE0007A858D819E81680F791FC501F60109955F
:101BF000E980FA800D811E812F81388549855A85BB
:101C00006FEF7FEF81E090E00E94CB1C8C01892B6D
:101C100009F056C0C8012A960FB6F894DEBF0FBE71
:101C2000CDBFDF91CF911F910F91FF90EF90DF908B
:101C3000CF90BF90AF909F908F90089580E085CF18
:101C400030E020E0220F331FF901EE54FD4F0190E8
:101C5000F081E02D309709F497CF892F90E0099516
:101C6000009709F491CFDC011296ED91FC91139746
:101C70001496CD90DC90309709F08CCF1FC021E0F6
:101C800030E0E0CF22E030E0DDCF23E030E0DACF1B
:101C9000D12CC12CE9E9FCE09F3F09F07BCFE0911A
:101CA000B202F091B302309721F4C90104EF1FEFA3
:101CB0000CC08FEF90E009950097A9F604EF1FEF95
:101CC00089859A85009709F4A5CF0E941D1FA2CF90
:101CD0000E94F81D8C0189859A850E941D1F70E065
:101CE00060E0C4010E94911D98878F830E94C81CE8
:101CF0009E838D836F8178856115710559F0C801C8
:101D00000E94A9209A87898706EF1FEF892B09F087
:101D100058CF59CF08EF1FEF56CF08EF1FEFD0CFA6
:101D20002091C002222319F020E00C94441787EF81
:101D30009FEF08958091BE029091BF0208950E9486
:101D4000BB1B0E94151BF5D0E2EBF2E088E0DF013F
:101D50001D928A95E9F71092C00290E080E0089504
:101D60000C94721921E040E050E0BA010C94441741
:101D700086E090E0FA019183808390E080E008950E
:101D800047E050E067E771E047CEDF92EF92FF92C5
:101D90000F931F93CF93DF938A01EC01C60FD71FD8
:101DA000E090C402F090C502D9800E94E01DD816D0
:101DB000190678F082E090E0F801918380838EEF3D
:101DC0009FEFDF91CF911F910F91FF90EF90DF90E8
:101DD0000895EF2841F482E090E0F8019183808338
:101DE00084EF9FEFEECF89818093C30290E001964C
:101DF000F8019183808390E080E0E3CFCF93DF937D
:101E0000EA010E94231A882321F00E94ED1D0E94FE
:101E1000241A82E090E0998388838BEF9FEFDF9113
:101E2000CF910895CF93DF93EB0186E0FB011192F0
:101E30008A95E9F78FEF8883D6DD8983E5DD8A838C
:101E4000E6DD9D838C83DF91CF910895CF93DF935F
:101E5000EA010E94261A811109C082E090E099836C
:101E6000888385EF9FEFDF91CF91089590E080E028
:101E7000B5DD81E090E09983888390E080E0F3CF46
:101E80000F931F93CF93DF93EA018C01060F171F67
:101E90000E94261A81110BC082E090E0998388830A
:101EA00085EF9FEFDF91CF911F910F910895F8017A
:101EB0008181823038F082E090E0998388838EEFD0
:101EC0009FEFF0CF81E090E089DD88E090E099839A
:101ED000888390E080E0E6CFCF93DF930097D1F442
:101EE000EB01FB01329686E0DF011D928A95E9F74E
:101EF0008FEF888385E089831A820E94E01D8B839F
:101F00000E94DF1D9D838C8381E08E838F83DF9110
:101F1000CF910895DF91CF911ACD80EC9EE0909300
:101F2000C2028093C10208958091C1029091C202C1
:101F300008951092C2021092C10208958091C402C5
:101F40009091C5020895411105C061157105810583
:101F5000910561F06093C4027093C5028093C6023C
:101F60009093C7024093C80281E0089580E00895ED
:101F7000FF920F931F93CF93DF938A01EC01C60F5B
:101F8000D71FF9800E94E01DF816190668F082E05C
:101F900090E0F801918380838EEF9FEFDF91CF91E6
:101FA0001F910F91FF9008956C817D818E819F819B
:101FB0004B81C9DF811108C082E090E0F801918374
:101FC000808384EF9FEFEACF89818093C30290E002
:101FD0000196F8019183808390E080E0DFCFCF937A
:101FE000DF93EA01FC01E60FF71F648175818681AA
:101FF00097814381A8DF811109C082E090E0998335
:10200000888384EF9FEFDF91CF91089581E090E086
:102010009983888390E080E0F6CFE4ECF2E04081A1
:10202000518162817381480F511D611D711D408373
:102030005183628373830895CF93C091C3024C2F61
:1020400050E06091C4027091C50201960E949F2CDD
:102050008C2FE3DF1092C302CF910895009799F47B
:102060008091C4029091C5022FEFFB012083892B40
:1020700059F02091C30230E02F5F3F4F24173507FE
:1020800019F4CB01D9CF63CC0895009799F48091CE
:10209000C4029091C5022FEFFB012083892B59F0D8
:1020A0002091C30230E02F5F3F4F2417350719F40A
:1020B000CB01C2CF4CCC089523E1AC01249FC001D9
:1020C000259F900D1124E091CD02F091CE02E80FF2
:1020D000F91F238134812250310981E022303105FA
:1020E00008F080E008950F931F93CF93DF93009142
:1020F000CF021091D002D0E0C0E080E00C171D07A5
:1021000049F491E0811190E0892FDF91CF911F91E7
:102110000F9108958111F5CFCE01CEDF2196EECF3C
:10212000A091CD02B091CE02109729F12091CF025B
:102130003091D00282179307F0F453E1589F900139
:10214000599F300D1124A20FB31FED91FC911197EF
:10215000309789F012968C91681768F48BE0689F2D
:10216000E00DF11D112480819181892B21F081E006
:102170009281491708F080E008959C0143E1429F55
:10218000C001439F900D1124E091CD02F091CE0249
:10219000E80FF91F8385823091F481E090E065813A
:1021A000768140915401509155016417750711F4DF
:1021B00090E080E0892B19F081E0232B09F080E08A
:1021C0000895EF92FF920F931F93CF93DF93EA014D
:1021D000FC01E60FF71F02811381E480F5804F2D8B
:1021E0006E2DC8019DDF81110DC082E090E09983C2
:1021F00088838EEF9FEFDF91CF911F910F91FF901A
:10220000EF900895C80158DF882339F082E090E00C
:102210009983888388EF9FEFEECF10935B01009343
:102220005A01E0925C01F0925D0181E090E09983B7
:10223000888390E080E0DFCFCF92DF92EF92FF9231
:102240000F931F93CF93DF937A01EC01C60FD71F33
:10225000C0905A01D0905B0100915C0110915D012A
:10226000412F602FC6015CDF811110C082E090E039
:10227000F701918380838AEF9FEFDF91CF911F91C8
:102280000F91FF90EF90DF90CF900895C60114DF7B
:10229000882341F082E090E0F7019183808388EF0A
:1022A0009FEFEBCF4C815D816E817F819A81898127
:1022B0008F3F41F082E090E0F701918380838EEFC1
:1022C0009FEFDBCFE3E1EC9D9001ED9D300D1124FC
:1022D000E091CD02F091CE02E20FF31F0190F08168
:1022E000E02D2BE0029FE00DF11D11240190F08103
:1022F000E02D27E0129FE00DF11D112480839183D2
:102300008B81828343835483658376831F5F10931D
:102310005D0181E090E0F7019183808390E080E0AF
:10232000ACCFEF92FF920F931F93CF93DF937A017D
:102330008C01060F171FC091CD02D091CE022097BD
:1023400081F021E030E0F801828193814091CF0259
:102350005091D0028417950710F030E020E0232B35
:1023600071F482E090E0F701918380838EEF9FEF1C
:10237000DF91CF911F910F91FF90EF90089543E16E
:10238000489F9001499F300D1124C20FD31F94DE46
:10239000882341F082E090E0F7019183808388EF09
:1023A0009FEFE6CFF8012481358120383105C8F64A
:1023B00087818111D6CF4181842F90E08F7E009755
:1023C00041F082E090E0F7019183808386EF9FEFF8
:1023D000CFCF4F833E832D832681288719862230D5
:1023E00010F421E0288721E030E0F70131832083D9
:1023F000BFCF88E090E0FA019183808390E080E095
:102400000895FB018FEF808381E181838FEF9FEF40
:102410009383828380E890E0958384831682178279
:102420000895FB018FEF808391E0918382839383F2
:10243000848384E3858381E090E097838683089595
:10244000DF92EF92FF920F931F93CF93DF93EA01F6
:10245000FC01E60FF71F8181813071F082E090E08E
:10246000998388838FEF9FEFDF91CF911F910F9119
:10247000FF90EF90DF90089582819381D480258131
:10248000E680F7800091CD021091CE020115110572
:1024900039F482E090E0998388838CEF9FEFE4CF5A
:1024A0004091CF025091D0028417950738F082E016
:1024B00090E0998388838EEF9FEFD6CF892B39F0F8
:1024C00082E090E09983888386EF9FEFCDCF8D2DBA
:1024D0008D7FB1F72130A1F781E0D11006C091E0E6
:1024E000E916F10431F080E004C0E2E0EE16F104F8
:1024F000D0F3882329F390E080E0DEDD882339F0F3
:1025000082E090E09983888388EF9FEFADCFF80158
:10251000D38681E08487F686E586108A178681E077
:1025200090E09983888390E080E09ECF4CE050E07B
:1025300061EA71E071CA8F929F92BF92CF92DF924F
:10254000EF92FF920F931F93CF93DF93EA01FC0169
:10255000E60FF71F828193810481B580E091CD025F
:10256000F091CE02309791F482E090E099838883D5
:102570008CEF9FEFDF91CF911F910F91FF90EF9024
:10258000DF90CF90BF909F908F9008952091CF02C1
:102590003091D0028217930738F082E090E099835F
:1025A00088838EEF9FEFE6CF23E1289F6001299F6C
:1025B000D00C1124EC0DFD1DE080F180E114F1043C
:1025C00099F28281081748F78BE0089F8001112457
:1025D000E00EF11EF70180819181892B29F6BB2045
:1025E000E1F2F7E0BF9E40011124C4010E94E41E05
:1025F000F70191838083E091CD02F091CE02EC0D42
:10260000FD1D0190F081E02DE00FF11F808191818F
:10261000009739F482E090E0998388838DEF9FEFF3
:10262000A9CFA40170E060E00E94A82C8091CD02A7
:102630009091CE02C80ED91EF60180819181080FBB
:10264000191FF801B28281E090E09983888390E0BD
:1026500080E090CFAF92BF92CF92DF92FF920F9324
:102660001F93CF93DF93EA01FC01E60FF71F8281EE
:102670009381F4800091CD021091CE0201151105D5
:1026800081F482E090E0998388838CEF9FEFDF9163
:10269000CF911F910F91FF90DF90CF90BF90AF909F
:1026A00008952091CF023091D0028217930738F01D
:1026B00082E090E0998388838EEF9FEFE8CF2FEF41
:1026C0002F0D2C3FA8F723E1289F6001299FD00CF4
:1026D00011240C0D1D1DF80180819181892B89F633
:1026E000FBE0FF9E50011124C5010E94E41EF80189
:1026F00091838083E091CD02F091CE02EC0DFD1D1F
:1027000080819181009739F482E090E099838883F9
:102710008DEF9FEFBCCFA50170E060E00E94A82C78
:10272000E091CD02F091CE02EC0DFD1DF28281E030
:1027300090E09983888390E080E0A9CFCF92DF92E8
:10274000EF92FF920F931F93CF93DF93860F971F04
:10275000FC01028113818091CD029091CE02892BE0
:1027600081F082E090E0FA01918380838CEF9FEF0B
:10277000DF91CF911F910F91FF90EF90DF90CF905D
:102780000895C801B0E0A0E00197A109B1098F3F09
:102790009F4FA105B10540F082E090E0FA019183DE
:1027A00080838EEF9FEFE4CF7A0183E1809F600109
:1027B000819FD00C1124C6010E94E41EEC010097F9
:1027C00041F482E090E0F701918380838DEF9FEFE9
:1027D000CFCFA60170E060E00E94A82CD093CE027B
:1027E000C093CD021093D0020093CF0290E080E01E
:1027F0002FEF3FEF41E061E070E08017910741F477
:1028000081E090E0F7019183808390E080E0B0CF99
:102810003A8B298B1B864C877E876D87188A1F868B
:1028200001966396EACFCF92DF92EF92FF920F93D9
:102830001F93CF93DF93EC01D12CC12C10E000E06B
:10284000F12CE12C6A8170E006171707BCF0660FC7
:10285000771FAE014F5E5F4FC7010E94491F00976F
:1028600021F02FEF3FEF3A8B298BDF91CF911F9112
:102870000F91FF90EF90DF90CF900895E881F9815C
:10288000EC0DFD1D438154818D859E85489F9001EF
:10289000499F300D589F300D1124C9010196011533
:1028A000110519F44F8144FD049661E070E00E9427
:1028B000911DE816F90608F47C010F5F1F4F8BE0AD
:1028C000C80ED11CBFCFF8942091CB023091CC021E
:1028D00081E02115310509F080E0232B09F078947F
:1028E00008952F923F924F925F926F927F928F92B4
:1028F0009F92AF92BF92CF92DF92EF92FF920F938F
:102900001F93CF93DF933C01660E771EF301828104
:1029100093814C01B12CA12CC091CD02D091CE025B
:10292000209769F021E030E06091CF027091D002F1
:102930008617970710F030E020E0232BD1F482E0D7
:1029400090E0FA01918380838EEF9FEFDF91CF912A
:102950001F910F91FF90EF90DF90CF90BF90AF90BD
:102960009F908F907F906F905F904F903F902F90AF
:10297000089580925E0190925F01A0926001B092F2
:10298000610163E1689F9001699F300D1124C20FBE
:10299000D31FF3018181833040F082E090E0FA019F
:1029A0009183808386EF9FEFD1CF2A012B813C81D9
:1029B000232BF1F4288139819F8191FF2EC0232B95
:1029C00009F46FC02091D2029A81422F490F5527F6
:1029D000551FBA0141E050E06138710514F050E034
:1029E00040E0452B09F45DC02A87920F9093D202F4
:1029F0008150823008F481C066DF882309F4D8C092
:102A0000F3018181813009F48DC008F47BC08230EC
:102A100009F4C6C090E080E0ADC0232B09F441C0AA
:102A20002091D1029A81E22FE90FFF27FF1F41E099
:102A300050E0ED3FF10514F050E040E0452B89F106
:102A40002A87920F9093D102D3CFA081B181A20F98
:102A5000B31F11966C91060F111D0196295F3F4F10
:102A60008417950794F38D859E85089F1001099F13
:102A7000300C189F300C1124C114D104D1F48F8173
:102A800084FF17C00E94DF1DF5E02F0E311C21E0EE
:102A90008215930508F420E0A701455F5F4F2111DF
:102AA0000EC082E090E0F2019183808387EF9FEF78
:102AB0004DCF0E94DF1D2FEF221A320AE8CF888106
:102AC0009981E80EF91EF70114830383FFEFCF1AF3
:102AD000DF0A7A018A818C151D0409F00CF48CCF71
:102AE000E881F981EE0DFF1D428150E030E020E0E9
:102AF00010E000E090E080E0B3CFF12CE12CD12C8D
:102B0000C12CE8CF81E090E09C838B83ECDA8823B2
:102B100009F480CF81E090E00E94EE0C80E40E94F6
:102B2000FC0C78CF89899A89019661F083E090E066
:102B30009C838B8382E090E00E94EE0C80E40E94F4
:102B4000F60C68CF8D819E81209154013091550102
:102B500082179307D1F46091580170915901AE0129
:102B60004F5E5F4F80915601909157010E946820FF
:102B70000097E1F2789422E030E0F2013183208383
:102B8000892B99F08DEF9FEFE1CE89288A288B2839
:102B900069F6892B59F6CE0146DE188A1F86E8CFE2
:102BA00082E090E09C838B8335CF90E080E0CECEB6
:102BB00082E090E0F2019183808385EF9FEFC6CEA3
:102BC0008F929F92AF92BF92CF92DF92EF92FF923D
:102BD0000F931F93CF93DF93EA018C01060F171F0A
:102BE000F8018181833098F082E090E099838883B6
:102BF00086EF9FEFDF91CF911F910F91FF90EF90A4
:102C0000DF90CF90BF90AF909F908F90089580916C
:102C1000CD029091CE02892B61F081E090E020916D
:102C2000CF023091D002232B11F490E080E0892B69
:102C300039F482E090E0998388838EEF9FEFDACFBA
:102C400042DE882309F4DFC0F8018181813009F474
:102C500095C0E8F0823099F42091CF023091D002F3
:102C6000E091CD02F091CE0290E080E041E050E0B2
:102C70002817390709F0BDC036DA811117C07894DA
:102C800081E090E09983888390E080E0B3CF209149
:102C9000CF023091D002E091CD02F091CE0290E0CF
:102CA00080E041E050E02817390741F481E090E0EE
:102CB0000E94EE0C80E40E94FC0CE1CF63817481E1
:102CC000672B11F05483438301967396ECCFE09108
:102CD000CD02F091CE02E00FF11F2381348122302A
:102CE0003105D9F4218932892F3F3F4FB1F4258135
:102CF000368140915401509155012417350761F5F3
:102D0000AF014F5E5F4F6091580170915901809102
:102D10005601909157010E946820EFEFCE1ADE0A0B
:102D2000EE0AFE0A0D5E1F4F4091CF025091D00275
:102D300070E060E0C416D506E606F7063CF500979D
:102D400031F27894892B09F49BCF82E090E099834B
:102D500088838DEF9FEF4ECFC114D104E104F104BD
:102D6000E1F6232BD1F6CF015EDDE091CD02F091AB
:102D7000CE02E00FF11F108A1786CFCF10E000E0DF
:102D800090E080E0C12CD12C7601CECF0097C9F61F
:102D900010E000E0812C912C540183E0E82EF12C0E
:102DA0001AC0E091CD02F091CE02E00FF11F8381B5
:102DB0009481029749F4F482E38282E090E00E94D9
:102DC000EE0C80E40E94F60CFFEF8F1A9F0AAF0A08
:102DD000BF0A0D5E1F4F8091CF029091D002B0E0EC
:102DE000A0E088169906AA06BB06DCF290E080E017
:102DF000A8CF638174816230710511F454834383D9
:102E00000196739635CF82E090E09983888385EFB1
:102E10009FEFF0CE0097B9F48FEFFB0180832091F4
:102E20005E0130915F0143E1429FC001439F900DDD
:102E30001124E091CD02F091CE02E80FF91F8285B6
:102E4000FB01818308950C94A70C88E090E0FA01BF
:102E50009183808390E080E008951092CC021092DC
:102E6000CB02EDECF2E086E0DF011D928A95E9F7F6
:102E700086E992E19093CA028093C90208958091F5
:102E8000C9029091CA0208952F923F924F925F9289
:102E90006F927F928F929F92AF92BF92CF92DF926A
:102EA000EF92FF920F931F93CF93DF93CDB7DEB7CF
:102EB00060970FB6F894DEBF0FBECDBFF894E091D7
:102EC000CB02F091CC023196F093CC02E093CB028E
:102ED0007894A091CD02B091CE02BA83A9831097C5
:102EE00009F4FAC1E091CF02F091D002EF2B09F47E
:102EF000F3C128874B875C876D877E879A87898790
:102F0000B88BAF87312C212CF12C512C412C809186
:102F1000CF029091D0022816390610F4FF2029F133
:102F2000F8948091CB029091CC0201979093CC02BF
:102F30008093CB027894C20160960FB6F894DEBFFE
:102F40000FBECDBFDF91CF911F910F91FF90EF90FA
:102F5000DF90CF90BF90AF909F908F907F906F90B9
:102F60005F904F903F902F900895B10190E080E0E6
:102F700087D4682EEF85F889878181FD3DC08381E4
:102F800094810397C9F5258136813C832B838985FC
:102F90009A852817390781F5C101EFD8782E882343
:102FA000A9F1AF85B8891F968D919C915097019694
:102FB00021E01D964D915C918417950709F020E062
:102FC0002F83B12CA12CEF85F88982818A151B04EF
:102FD00019F014F0FF20E9F0F885FF2309F46CC123
:102FE000AF85B88950961C921E921F97662021F0DB
:102FF000B10190E080E046D4FFEF2F1A3F0A2F8501
:1030000038892D5E3F4F388B2F8781CFB1E0BF834A
:10301000D8CFBED49E838D83E885EE23E9F0772058
:1030200009F43CC1AF85B8891F968D919C91892B7D
:1030300079F0BBE0BA9DC001BB9D900D1124AF8516
:10304000B889ED91FC91E80FF91F85819681F5D63D
:10305000BFEFAB1ABB0AB7CF81E0772039F0EF851D
:10306000F88927853089232B09F080E0F82EE12CA0
:10307000A114B10439F4AF85B8891796EC90E4FA3D
:10308000EE24E0F8BBE0BA9D6001BB9DD00C11249A
:10309000882309F424C1AF85B889ED91FC9111977B
:1030A000EC0DFD1D438154811D962D913C91429F55
:1030B000C001439F900D529F900D1124E1105DC0FF
:1030C00001969087878361E070E08781908529D59C
:1030D000EF85F88921893289008111810C0D1D1D30
:1030E0002F3F320709F44BC0BC01C9010E94A9203F
:1030F000D80116969C938E931597AF85B889ED915C
:10310000FC911197EC0DFD1D05811681011511052E
:1031100009F4CDC0ED81FE810E0F1F1F1A968C9110
:103120008A0DD8018C93E1102FC00F5F1F4FAF8520
:10313000B889ED91FC91EC0DFD1D12870187AF85DB
:10314000B889ED91FC91EC0DFD1D85819681892B4F
:1031500009F4A4C080915401909155012B813C81C8
:103160002817390709F465C0772011F00185128509
:10317000912C812C1A8219824AC00596A2CF24D69E
:10318000F80196838583B9CF8B859C85AD85BE85F7
:10319000F80181839283A383B4830B5F1F4FC7CF52
:1031A000E080F180E80CF91CD70113966D917C91B9
:1031B00014978C918F3F09F473C0E1E0F0E002C0F6
:1031C000EE0FFF1F8A95E2F7CF01092E000CAA0B24
:1031D000BB0BFB0140815181628173818423952364
:1031E000A623B72321E0892B8A2B8B2B09F420E01F
:1031F000D8012C93D70111968C91080F111DE981EC
:10320000FA813196FA83E983F7E08F0E911CAF853E
:10321000B889ED91FC91EC0DFD1D828129813A81E7
:103220008217130611F00CF0BBCF772011F0128734
:1032300001873F81332391F1AF85B889ED91FC91EE
:10324000EC0DFD1D61E070E0878190856AD4AF854B
:10325000B889ED91FC91EC0DFD1DE780F08445816E
:103260005681E1E0F0E0662011F0F0E0E0E00D8151
:103270001E819C01B101882799278E1B9F0B8BD340
:103280002C01892B59F0EF85F88980819181C80E36
:10329000D91ED60115968D919C91CFD5F12CD8CE03
:1032A000F701418150E0C8010E949F2CA3CF86EF17
:1032B000482E55245A94CCCEEF85F889878590897D
:1032C0000196908B8787258536858217930709F0AD
:1032D0008DCE108A17868ACE512C412C21CE10E03B
:1032E00000E02DCF2F923F924F925F926F927F928C
:1032F0008F929F92AF92BF92CF92DF92EF92FF9206
:103300000F931F93CF93DF938091CD029091CE02C4
:1033100010E000E0892BA9F0D6DA0AEF1FEF88232E
:1033200081F02090CF023090D002C091CD02D09198
:10333000CE02D12CC12C10E000E02C143D04A9F4E5
:103340007894C801DF91CF911F910F91FF90EF907A
:10335000DF90CF90BF90AF909F908F907F906F90B5
:103360005F904F903F902F900895C6010E94BD102E
:10337000882309F18B819C810397E9F48F859889D3
:10338000892BC9F0B60190E080E07AD221E030E0EC
:10339000882311F030E020E044245524421A530AD7
:1033A000B12CA12C912C812C8A818815190409F04B
:1033B00038F4188A1F864FEFC41AD40A6396BDCF1B
:1033C000E881F981EA0DFB1D85819681892BA1F1A8
:1033D00061E070E087819085A4D33C01D9D28C0153
:1033E000E881F981EA0DFB1D818592852581368171
:1033F000200F311FAC01421B530B9A0147815085AE
:10340000421B530B70E060E00E94A82CE881F98118
:10341000EA0DFB1DE780F084458156819301B601DA
:10342000C201B9D28C01892B39F0E881F981EA0D0A
:10343000FB1D8581968101D55FEF851A950A8BE08A
:10344000A80EB11CB1CF3FCA789408952F923F9235
:103450004F925F926F927F929F92AF92BF92CF9264
:10346000DF92EF92FF920F931F93CF93DF9300D0E1
:1034700000D000D0CDB7DEB70091CD021091CE02C2
:10348000992493940115110509F43EC0A090CF0230
:10349000B090D00218DA982E8823B1F11092CE02A3
:1034A0001092CD021092D0021092CF021092D1024F
:1034B0001092D2028FEF9FEFDC0180935E01909318
:1034C0005F01A0936001B093610178947AD31E8369
:1034D0000D83C12CD12C7601C501B0E0A0E0898319
:1034E0009A83AB83BC8322242A94322C89819A81CB
:1034F000AB81BC81C816D906EA06FB06F4F0C80108
:103500009CD480E40E94FC0C892D26960FB6F8947A
:10351000DEBF0FBECDBFDF91CF911F910F91FF9006
:10352000EF90DF90CF90BF90AF909F907F906F9083
:103530005F904F903F902F900895AD81BE8115967A
:103540008D919C91169720915401309155018217CD
:103550009307D1F451968D919C91E9D5ED81FE812F
:1035600080819181B12CA12C412C512C3201892BCD
:1035700089F5BFEFCB1ADB0AEB0AFB0AED81FE816E
:103580007396FE83ED83B2CFC114D104E104F1043C
:1035900029F7892B19F7ED81FE81818992898F3F67
:1035A000980709F024D5AD81BE8152963C922E92A7
:1035B0005197D4CF8A0D9B1DDC018D919C91009772
:1035C00009F03BD4BFEF4B1A5B0A6B0A7B0AEBE0B6
:1035D000AE0EB11CAD81BE818D919C91119712965A
:1035E0004C9150E070E060E04416550666067706A0
:1035F0000CF323D4BECFCF93DF93EA0127DF8111F1
:1036000009C082E090E09983888385EF9FEFDF9186
:10361000CF91089581E090E00E94EE0C81E090E06F
:103620009983888390E080E0F2CF10DF1092CA0285
:103630001092C902089542E050E069EE71E00C94E6
:103640000C0DFF920F931F93CF93DF938A01EC0130
:10365000C60FD71FF980B4D20897F816190671F073
:1036600068F082E090E0F801918380838EEF9FEF15
:10367000DF91CF911F910F91FF9008956C817D8113
:103680008E819F814B810E94A30F811108C082E02F
:1036900090E0F8019183808384EF9FEFE9CFF98078
:1036A0000E949E0F4F2D50E0BE01685F7F4F0E9429
:1036B0009F2C89810E940D1081E090E0F801918398
:1036C000808390E080E0D4CFDF92EF92FF920F935F
:1036D0001F93CF93DF938A01EC01C60FD71F0E947F
:1036E0009E0F7C01D9806CD2DD2059F0029721E039
:1036F00030E0D816190619F010F030E020E0232B46
:1037000079F482E090E0F801918380838EEF9FEF5F
:10371000DF91CF911F910F91FF90EF90DF9008956F
:10372000EF2841F482E090E0F8019183808384EFF8
:103730009FEFEECFF9800E949E0F4F2D50E0BE010B
:103740006E5F7F4F0E949F2C89810E940D1081E047
:1037500090E0F8019183808390E080E0D9CF8BE105
:103760009BE19093D4028093D30208958091D30279
:103770009091D40208950895FC01118210829383E0
:1037800082830895DB011D921C92DC011296ED915B
:10379000FC9113977183608313967C936E931297B9
:1037A0000895FC0180819181DB018D939C93A08120
:1037B000B181109741F08D919C9191838083892BE9
:1037C00011F4F383E2830895FC0180819181DB0190
:1037D0008D939C93892B11F473836283718360832F
:1037E0000895FC0111821082938382830895CF9300
:1037F000DF9300D0CDB7DEB71A821982F894BE01EC
:103800006F5F7F4F8AED92E0CCDF89819A810097CC
:1038100009F013D389819A81892B89F7BE016F5FE3
:103820007F4F8EED92E0BDDF89819A81009709F08C
:1038300004D389819A81892B89F778940F900F900E
:10384000DF91CF910895CF93DF9300D0CDB7DEB74E
:103850001A821982F894BE016F5F7F4F86ED92E065
:10386000A0DF89819A81009709F0E7D289819A8146
:10387000892B89F778940F900F90DF91CF9108955D
:1038800081E0089590E080E00895EF92FF920F9319
:103890001F93CF93DF9300D0CDB7DEB71A82198282
:1038A0008091D50207EF1FEF8823A1F1F894BE01A4
:1038B0006F5F7F4F8EED92E074DF789489819A81FB
:1038C000EE24E394F12C892B51F4F894BE016F5F40
:1038D0007F4F8AED92E065DF7894F12CE12C8981AD
:1038E0009A810EEF1FEF0097A9F0FC0142815381EE
:1038F00064E070E070D68C01892B61F0F8946981E6
:103900007A81C701880F991F880F991F86529D4F92
:103910005BDF7894C8010F900F90DF91CF911F91DA
:103920000F91FF90EF9008950F931F93CF93DF9324
:1039300000D000D0CDB7DEB71C821B821A8219825C
:103940008091D50207EF1FEF8823C1F0AE014D5FD4
:103950005F4F64E070E0CE010196B0D68C01892BF8
:1039600069F4E981FA818B819C8193838283F89445
:1039700069817A8186ED92E005DF7894C8010F9025
:103980000F900F900F90DF91CF911F910F9108959D
:10399000B5D7049608958F929F92AF92BF92CF921F
:1039A000DF92EF92FF920F931F93CF93DF9300D09C
:1039B000CDB7DEB71A821982BC016F5F7F4F6330CB
:1039C000710598F0AA24AA94BA2CC5010F900F9003
:1039D000DF91CF911F910F91FF90EF90DF90CF90EB
:1039E000BF90AF909F908F9008954115510551F36E
:1039F000480159018A016C01CBDF8815990511F73F
:103A0000E114F104F9F28E0D9F1DA816B906D0F24B
:103A10008091D5028823F1F0F894B50164507109C2
:103A20009701AE014F5F5F4FC8010496DCD65C0181
:103A3000892B71F489819A81F80193838283C6016D
:103A4000880F991F880F991FB80186529D4F9ADEE3
:103A50007894BBCF87EFA82EBB24BA94B6CFAF9291
:103A6000BF92CF92DF92EF92FF920F931F93CF936B
:103A7000DF9300D0CDB7DEB71A821982892B09F007
:103A800047C06115710509F443C04115510509F49A
:103A90003FC02115310509F43BC001151105C1F1E5
:103AA0008091D5028823B9F179016A015B01F8940C
:103AB000BE016F5F7F4F86ED92E073DE789489815F
:103AC0009A81009759F1DC0112966D917C91A801C1
:103AD0000496A2D68C01E981FA81D501ED93FC937D
:103AE000828193810496F6019183808351DFD7010F
:103AF0008D939C93C8010F900F90DF91CF911F91F0
:103B00000F91FF90EF90DF90CF90BF90AF9008950E
:103B10000FEF1FEFEFCF07EF1FEFECCF0EEF1FEF11
:103B2000E9CFCF93DF93EC01672B71F4F0D68C17BC
:103B30009D0760F0E3D62496C80FD91FE2D68C0FFC
:103B40009D1FDF91CF910895DFD6F1CF90E080E007
:103B5000F8CF0F931F93CF93DF932091D5022111BC
:103B60002BC08B01EC018AED92E006DE8EED92E037
:103B700003DE86ED92E000DE97D00097C1F4C7D651
:103B800070E060E0CEDF42E651E062E070E081D1BB
:103B9000009769F48091620190916301CAD6B801DF
:103BA000CE01FFD4009719F421E02093D502DF91D4
:103BB000CF911F910F91089584EF9FEFF8CFA4C686
:103BC000A6C6CF93DF93A6D6EC01892B11F40FDEA6
:103BD0003ADECE01DF91CF910895CF93DF939AD64D
:103BE000EC01892B09F403DECE01DF91CF9108951A
:103BF00080916201909163010895CF93DF9380914A
:103C0000D502D0E0C0E08823D1F098D6EC01892B12
:103C1000B1F4EDDD18DE8091620190916301E7D18E
:103C2000E8D2EC01892B59F48AED92E0DADD8EEDD1
:103C300092E0D7DD86ED92E0D4DD1092D502CE0180
:103C4000DF91CF910895EF92FF920F931F93CF933F
:103C5000DF93EC017A018B010F5F1F4F0E9DA001D6
:103C60000F9D500D1E9D500D112470E060E00E94CC
:103C7000A82C90E080E0F0E0E0E02FEFE816F906F5
:103C800039F4DF91CF911F910F91FF90EF9008953C
:103C90001A8219822883309711F0D283C18301964A
:103CA000FE01C00FD11FEACFCF92DF92EF92FF92B9
:103CB0000F931F93CF93DF930AEF13E00C7F43E042
:103CC00050E064E671E08AE691E018D484E6E82EDC
:103CD00081E0F82E9AE6C92E91E0D92EC9E8D4E009
:103CE000D7014D915D917D01F601619171916F0157
:103CF000198308835D834C835B834A837F836E8350
:103D00009B012F5F3F4F249FC001259F900D349F43
:103D1000900D1124998788870115110511F0C801AC
:103D200092DF88859985080F191F2A96FAE6EF1603
:103D3000F1E0FF06A9F6E4EEF2E083E191E0DF01B5
:103D40009C011D9221503040E1F71092E302109245
:103D5000E2021092A8041092A7041092AC041092F0
:103D6000AB041092AA041092A9041092AE0410920F
:103D7000AD041092B0041092AF041092B2041092ED
:103D8000B1041092B6041092B5041092B4041092CB
:103D9000B3041092B8041092B7041092BA041092AF
:103DA000B90410928604109285041092880410922F
:103DB000870490E080E0DF91CF911F910F91FF90F9
:103DC000EF90DF90CF9008950097F1F0F894AAE675
:103DD000B1E0E9E8F4E030E020E04D915D91481772
:103DE0005907A8F0428153814115510581F08AE0BD
:103DF000829FF001839FF00D1124E757FB4F8081D4
:103E00009181009759F4789490E080E008952F5FB5
:103E10003F4F3A962330310501F7F5CFDC0111967B
:103E20006D917C917183608341505109538342832A
:103E3000FC012193CF0178940895009749F1DC01AA
:103E40008E91853041F4E0918704F0918804309799
:103E5000F9F0CD0109948530D8F4282F30E0F8949A
:103E60008FEF8C938AE0829FF001839FF00D1124E5
:103E7000E757FB4F8081918112969C938E93119707
:103E8000B183A08382819381019693838283789406
:103E90000895CF92DF92EF92FF920F931F93CF93EB
:103EA000DF939C0187EE92E08C7F4115510509F468
:103EB0009BC02115310509F497C06115710509F4FE
:103EC00093C07A01AB01B9016D5F7F4F6C7F9B019D
:103ED0002F5F3F4F249F8001259F100D349F100DB1
:103EE0001124F8942091A7043091A804232B59F4AD
:103EF0002091AF043091B0042115310569F12017EC
:103F0000310708F058C02091B1043091B204232B3E
:103F100091F42091AF043091B004820F931F20914F
:103F2000B9043091BA042115310509F441C02017B4
:103F3000310708F056C07894CFEFDFEF86EF9FEFA0
:103F4000F701D183C083DF91CF911F910F91FF9033
:103F5000EF90DF90CF900895C3E0D0E0C090E202F0
:103F6000D090E30220E131E02C193D092017310700
:103F700010F32AE02C9FF0012D9FF00D1124E7573C
:103F8000FB4F91838083558344835383428377839C
:103F9000668311870087009709F055DE0C0D1D1D03
:103FA0001093E3020093E202789490E080E0C8CF9F
:103FB000C4E0D0E0D3CFC3E0D0E02AE02C9FF001F2
:103FC0002D9FF00D1124E757FB4F9183808355837C
:103FD00044835383428377836683009729F333DED8
:103FE000E3CFC4E0D0E0E9CF8FEF9FEFACCF9C01EF
:103FF0000397029708F069C0F89484E09AE0482F8C
:1040000050E0241735070CF44DC091E08AE0829F00
:10401000F001839FF00D1124E757FB4F11821082AE
:104020001582148213821282178216829923B1F1AB
:104030008091A7049091A804892BA9F42091AF0442
:104040003091B0042115310571F08091E202909118
:10405000E302821B930B9093E3028093E20210929F
:10406000B0041092AF048091B1049091B204892BF6
:10407000A9F42091B9043091BA042115310571F0E9
:104080008091E2029091E302821B930B9093E302F2
:104090008093E2021092BA041092B904789490E0EE
:1040A00080E00895949FF001959FF00D1124E7574B
:1040B000FB4F40815181452B31F440855185452B83
:1040C00011F481509CCF90E0A1CF8FEF9FEF089526
:1040D0004115510549F1009739F16115710521F13B
:1040E000F8942091850430918604232BB9F4209113
:1040F000870430918804232B89F49093860480935D
:1041000085047093880460938704789425E030E0F8
:1041100090E080E0FA0131832083089578942FEFB6
:104120003FEF86EF9FEFF6CF8FEF9FEF0895059754
:1041300069F4F89410928604109285041092880411
:1041400010928704789490E080E008958FEF9FEFBD
:1041500008956115710519F4F0E0E0E011C08530B3
:10416000910581F4E0918504F09186043097A1F3E4
:10417000CB0101960995009779F3FC0185E08193C5
:10418000CF0108959C01235031092230310520F7D9
:104190002AE0289FD001299FB00D1124A757BB4FBB
:1041A0002D913C911197232BB9F216962D913C91AC
:1041B00017972617370780F2F89412962D913C91A5
:1041C00013972115310529F0ED91FC911197309746
:1041D00011F47894C1CF4181528111965C934E9332
:1041E0002150310913963C932E9312978193789422
:1041F000C7CFE7EFF3E08EE8DF011D928A95E9F77C
:10420000E4EEF2E083E191E0DF019C011D92215098
:104210003040E1F71092E3021092E202E9E8F4E0A4
:1042200082E3DF011D928A95E9F7E5E8F4E084E096
:10423000DF011D928A95E9F790E080E00895CF9321
:10424000DF93C0917001D0917101CF3FDC0759F429
:1042500007D4909371018093700197FF09C0D093A8
:104260007101C093700184EF9FEFDF91CF910895AA
:1042700090E080E0FACF8230910528F48093BB046F
:1042800090E080E008958FEF9FEF08954F925F9246
:104290006F927F92AF92BF92CF92DF92EF92FF9296
:1042A0000F931F93CF93DF9300D0CDB7DEB71A8261
:1042B0001982009709F478C06115710509F474C07A
:1042C000209170013091710107EF1FEF2F3F3F4F99
:1042D00009F444C06B015C01412C512C3201F12CDA
:1042E000E12C10E000E09E012F5F3F4FA6014E1928
:1042F0005F09B5016E0D7F1D809170019091710174
:104300000ED4892B09F04AC089819A81009741F423
:10431000E114F10429F42091BB04222309F441C0E3
:10432000E80EF91EEC14FD04C8F480E8481684E891
:1043300058068EE16806710418F560E070E0CB0164
:104340005BD72AE0420E511C611C711C0A3F4FEFE3
:10435000140721F0043F8FEF1807A1F4C8010F9054
:104360000F90DF91CF911F910F91FF90EF90DF9011
:10437000CF90BF90AF907F906F905F904F900895D7
:1043800001EF1FEF81E090E0013F2FEF120711F0E6
:1043900090E080E0892B09F4A6CFE0CF04EF1FEF77
:1043A000DDCF0AEF1FEFDACF0FEF1FEFD7CF4F921E
:1043B0005F926F927F92AF92BF92CF92DF92EF9215
:1043C000FF920F931F93CF93DF9300D0CDB7DEB74B
:1043D0001A821982009709F478C06115710509F4F1
:1043E00074C0209170013091710107EF1FEF2F3FD2
:1043F0003F4F09F444C06B015C01412C512C320148
:10440000F12CE12C10E000E09E012F5F3F4FA60150
:104410004E195F09B5016E0D7F1D8091700190915D
:10442000710133D3892B09F04AC089819A810097A1
:1044300041F4E114F10429F42091BB04222309F48E
:1044400041C0E80EF91EEC14FD04C8F480E84816DB
:1044500086E9580688E96806710418F560E070E09E
:10446000CB01CAD62AE0420E511C611C711C0E3FC2
:104470004FEF140721F0043F8FEF1807A1F4C80194
:104480000F900F90DF91CF911F910F91FF90EF90C0
:10449000DF90CF90BF90AF907F906F905F904F90E4
:1044A000089502EF1FEF81E090E0023F2FEF120727
:1044B00011F090E080E0892B09F4A6CFE0CF04EF63
:1044C0001FEFDDCF0EEF1FEFDACF0FEF1FEFD7CFCC
:1044D00080917001909171018F3F980749F0B8D297
:1044E000892B49F48FEF9FEF9093710180937001B6
:1044F00090E080E0089584EF9FEF0895CF92DF92DF
:10450000EF92FF920F931F93CF93DF9321E041151A
:10451000510509F020E04150510921112CC0DC0166
:10452000FB01D12CC12C21E022C03FEFC31AD30ADA
:104530007D010D911D91E701EA80FB80E016F106F7
:10454000A8F420813181E280F380F182E08233831C
:104550002283ED90FC9011979D0122503109E901D1
:10456000F982E88211961C930E9320E03296C416CD
:10457000D506D8F2D2CFDF91CF911F910F91FF9046
:10458000EF90DF90CF900895FC01680F791F90E0C5
:1045900080E0E617F70709F408952191820F911D35
:1045A000F8CF2091BC04211113C049DE009791F48B
:1045B0001092C2041092C1041092C0041092BF0461
:1045C0001092BE041092BD0421E02093BC04089513
:1045D00084EF9FEF0895AF92BF92CF92DF92EF9258
:1045E000FF920F931F93CF93DF93009709F460C05E
:1045F0004630510508F45CC02091BC04C7EFDFEFE2
:10460000222309F449C08C01060F171FF801C0804E
:10461000D180C114D10409F44EC096012A5F3F4FE6
:104620004217530708F447C07C018091C104909160
:10463000C20493838283B6016C5F7F4F5801A60E3C
:10464000B71EC801A1DFF5019183808364E070E0AB
:10465000C8011CDEEC01892BF9F481E090E00BDE4F
:10466000B601C801049612DEEC01892B91F462E0D8
:1046700070E0C5010BDEEC01892B59F4C701DDDBCD
:104680008091C1049091C20401969093C2048093DA
:10469000C10490E080E0EFDDCE01DF91CF911F916A
:1046A0000F91FF90EF90DF90CF90BF90AF90089563
:1046B000CFEFDFEFF1CFC9EFDFEFEECF6F927F9259
:1046C0008F929F92AF92BF92CF92DF92EF92FF9222
:1046D0000F931F93CF93DF9300D000D0CDB7DEB7F9
:1046E000009709F47AC04115510509F476C020916C
:1046F000BC0407EF1FEF222309F44DC03A017B01F0
:104700005C0164E070E0CE01019651DE8C01892BE2
:1047100009F041C009811A810115110509F45AC037
:10472000480186E0880E911CB701680D791D8091C3
:104730007201909173010DDD6C01009709F450C076
:10474000A70170E060E00E94A82C89819A81AB816A
:10475000BC81EC0CFD1CF70181939193A193B19363
:104760007F0181E090E087DDB801C70120DE892B61
:1047700031F562E070E0C701800F911F18DE8C01F7
:10478000892BE9F490E080E076DDF501D182C082EA
:10479000F30191828082C8010F900F900F900F90CB
:1047A000DF91CF911F910F91FF90EF90DF90CF900D
:1047B000BF90AF909F908F907F906F90089590E002
:1047C00080E059DDF50111821082F301118210821F
:1047D000C60133DB09EF1FEFDECF0FEF1FEFDBCF9B
:1047E00006EF1FEFD8CF0097A1F04115510589F0D2
:1047F0002115310571F0F90136966E177F0748F0E3
:10480000DC012D933C93DA01ED93FC9390E080E082
:1048100008958FEF9FEF0895AF92BF92CF92DF92EE
:10482000EF92FF920F931F93CF93DF93009709F4BA
:104830005FC04115510509F45BC06530710508F48E
:1048400057C02091BC04C7EFDFEF222391F1DC01B8
:10485000CD90DC9011971296ED91FC9196012A5F14
:104860003F4FC9EFDFEF2617370719F5C091BD0499
:10487000D091BE04209749F521E030E03093BE048A
:104880002093BD047A018C01F093C004E093BF042F
:104890005601B4E0AB0EB11CB50176DE0A0D1B1D4E
:1048A000F801208131818217930729F5D701CD9234
:1048B000DC92CE01DF91CF911F910F91FF90EF908D
:1048C000DF90CF90BF90AF9008952091BF043091BA
:1048D000C0042F5F3F4FCCEFDFEFE217F30790F2FA
:1048E000CBEFDFEF2E173F0768F2D0E0C0E0CACF72
:1048F000CFEFDFEFDECFC3EFDFEFDBCF84E090E081
:10490000089582E090E008958CEF9FEF089580E293
:1049100090E008951092C2041092C1041092C00455
:104920001092BF041092BE041092BD0490E080E08B
:104930000895909373018093720108958091BC044F
:10494000882391F0C5DD009789F41092C20410927B
:10495000C1041092C0041092BF041092BE041092C1
:10496000BD041092BC04089590E080E00895009783
:1049700049F06115710531F0FC0111821082FB01D3
:10498000118210820895F3CF26E030E040E051EE2E
:1049900060E070E090E080E000C0892B19F480EDC9
:1049A00094E07AC608951F920F920FB60F921124C9
:1049B0002F933F934F935F936F937F938F939F9327
:1049C000AF93BF93EF93FF9383E89FEF909385009E
:1049D00080938400B7D0FF91EF91BF91AF919F91E9
:1049E0008F917F916F915F914F913F912F910F9098
:1049F0000FBE0F901F90189583E89FEF909385004E
:104A000080938400AFE6B0E08C918E7F8C93E0E8D9
:104A1000F0E080818C7F8083E1E8F0E08081877E18
:104A2000808380818360808380818B7F80838C9171
:104A300081608C930895EFE6F0E0808190819E7F05
:104A400090838170089581E008951092C3040895C1
:104A500068EE73E080E090E0CFD390E080E00895CE
:104A600026E030E040E052EC61E070E090E080E071
:104A700094DF80ED94E046D5892B21F080ED94E021
:104A80005BD5F7CF90E080E00895CF92DF92EF9270
:104A9000FF920F931F93CF93DF936B017A01E9018C
:104AA0001982188280ED94E02DD5892B69F1860159
:104AB000CC24C39482E0D82E8091C304811110C00D
:104AC00080ED94E039D50297B9F7C092C304F8019C
:104AD000D1928F0188819981019699838883ECCF47
:104AE000888199818E159F0578F480ED94E024D516
:104AF0008F3F9807A9F3F80181938F0188819981ED
:104B0000019699838883ECCF90E080E0DF91CF918C
:104B10001F910F91FF90EF90DF90CF9008950F932A
:104B20001F93CF93DF93EA01890180ED94E098D63B
:104B3000F801D183C08390E080E0DF91CF911F9195
:104B40000F910895CF92DF92EF92FF92CF93DF9370
:104B50008091C40491E0980F9093C404882379F065
:104B600021E030E03093C6042093C5048093C40450
:104B7000DF91CF91FF90EF90DF90CF9008957894E0
:104B8000C0917501D09176016E8D7F8D88A199A11C
:104B9000ABD120E030E040E85FE45CD26B017C0107
:104BA0006A8D7B8D8C8D9D8D9FD19B01AC01C70142
:104BB000B60199D06DD16B017C010E945A03B701F7
:104BC000A60190E080E00E94CC02F8948091C40499
:104BD0008150CCCF0F931F93CF93DF9310920F068A
:104BE00010920E063FD3D0DEC0917501D0917601B0
:104BF000198218826FEF7FEFCB010E944F0370E0A4
:104C000060E090E080E00E94D001009709F03AC097
:104C10000E948C05F8947894BE016A5D7F4F8A816A
:104C20009B810E94D301892B59F46FEF7FEFCB0159
:104C30000E9462020E944903882311F081E08AA742
:104C4000F894DADE0E944C03882311F080E008C05B
:104C50000E9449038111FACF81E09AA59111F6CF04
:104C600080930E0678940E94E90C8C0178948091D0
:104C70000E0681110CC00E9495060E942E03F89426
:104C800090E080E0DF91CF911F910F9108950E94F5
:104C90002C030E944C038823D9F081E080930F06F7
:104CA00090910F0681E0911180E080930E06809133
:104CB0000F068111C0DE0130110529F40E94E90CB4
:104CC000892B09F4C2DE0E94E90C8C01BCDECFCF37
:104CD0000E9449038111E1CF81E09AA59111DECFB5
:104CE00080E0DCCF5058BB27AA270ED075C166D113
:104CF00030F06BD120F031F49F3F11F41EF45BC112
:104D00000EF4E095E7FB51C1E92F77D180F3BA1794
:104D1000620773078407950718F071F49EF58FC139
:104D20000EF4E0950B2EBA2FA02D0B01B9019001C6
:104D30000C01CA01A0011124FF27591B99F0593F0A
:104D400050F4503E68F11A16F040A22F232F342F52
:104D50004427585FF3CF469537952795A795F040A0
:104D60005395C9F77EF41F16BA0B620B730B840BB5
:104D7000BAF09150A1F0FF0FBB1F661F771F881F6D
:104D8000C2F70EC0BA0F621F731F841F48F48795C5
:104D900077956795B795F7959E3F08F0B3CF9395B4
:104DA000880F08F09927EE0F979587950895D9D029
:104DB00008F481E008950CD00FC107D140F0FED077
:104DC00030F021F45F3F19F0F0C0511139C1F3C048
:104DD00014D198F39923C9F35523B1F3951B550BBF
:104DE000BB27AA2762177307840738F09F5F5F4FBE
:104DF000220F331F441FAA1FA9F333D00E2E3AF0FF
:104E0000E0E830D091505040E695001CCAF729D018
:104E1000FE2F27D0660F771F881FBB1F2617370767
:104E20004807AB07B0E809F0BB0B802DBF01FF2797
:104E300093585F4F2AF09E3F510568F0B6C000C1FD
:104E40005F3FECF3983EDCF3869577956795B795D1
:104E5000F7959F5FC9F7880F911D9695879597F9EC
:104E60000895E1E0660F771F881FBB1F6217730765
:104E70008407BA0720F0621B730B840BBA0BEE1F7A
:104E800088F7E095089504D06894B111D9C00895C9
:104E9000BCD088F09F5790F0B92F9927B751A0F058
:104EA000D1F0660F771F881F991F1AF0BA95C9F7BE
:104EB00012C0B13081F0C3D0B1E00895C0C0672FF7
:104EC000782F8827B85F39F0B93FCCF3869577956E
:104ED0006795B395D9F73EF4909580957095619557
:104EE0007F4F8F4F9F4F0895E89409C097FB3EF482
:104EF00090958095709561957F4F8F4F9F4F992327
:104F0000A9F0F92F96E9BB279395F69587957795A4
:104F10006795B795F111F8CFFAF4BB0F11F460FF64
:104F20001BC06F5F7F4F8F4F9F4F16C0882311F0BC
:104F300096E911C0772321F09EE8872F762F05C0D0
:104F4000662371F096E8862F70E060E02AF09A956B
:104F5000660F771F881FDAF7880F9695879597F960
:104F60000895990F0008550FAA0BE0E8FEEF1616FA
:104F70001706E807F907C0F012161306E407F5074D
:104F800098F0621B730B840B950B39F40A2661F0C1
:104F9000232B242B252B21F408950A2609F4A14064
:104FA000A6958FEF811D811D089597F99F6780E871
:104FB00070E060E008959FEF80EC089500240A946B
:104FC0001616170618060906089500240A941216E4
:104FD0001306140605060895092E0394000C11F417
:104FE000882352F0BB0F40F4BF2B11F460FF04C0C4
:104FF0006F5F7F4F8F4F9F4F089557FD9058440F1D
:10500000551F59F05F3F71F04795880F97FB991F27
:1050100061F09F3F79F087950895121613061406E4
:10502000551FF2CF4695F1DF08C016161706180671
:10503000991FF1CF86957105610508940895E8944C
:10504000BB2766277727CB0197F908958ADF08F4F5
:105050008FEF08950BD0C0CFB1DF28F0B6DF18F086
:10506000952309F0A2CFA7CF1124EACFC6DFA0F382
:10507000959FD1F3950F50E0551F629FF001729FED
:10508000BB27F00DB11D639FAA27F00DB11DAA1F0C
:10509000649F6627B00DA11D661F829F2227B00D59
:1050A000A11D621F739FB00DA11D621F839FA00DE4
:1050B000611D221F749F3327A00D611D231F849F34
:1050C000600D211D822F762F6A2F11249F5750408B
:1050D0008AF0E1F088234AF0EE0FFF1FBB1F661F26
:1050E000771F881F91505040A9F79E3F510570F0DF
:1050F0005CCFA6CF5F3FECF3983EDCF386957795C7
:105100006795B795F795E7959F5FC1F7FE2B880FD9
:10511000911D9695879597F908951F920F920FB656
:105120000F9211242F933F938F939F93AF93BF932D
:105130008091C8049091C904A091CA04B091CB0495
:105140003091C70423E0230F2D3758F50196A11D98
:10515000B11D2093C7048093C8049093C904A09301
:10516000CA04B093CB048091CC049091CD04A0915B
:10517000CE04B091CF040196A11DB11D8093CC0443
:105180009093CD04A093CE04B093CF04BF91AF9180
:105190009F918F913F912F910F900FBE0F901F9075
:1051A000189526E8230F0296A11DB11DD2CF3FB757
:1051B000F8948091CC049091CD04A091CE04B0914C
:1051C000CF0426B5A89B05C02F3F19F00196A11D5D
:1051D000B11D3FBFBA2FA92F982F8827BC01CD0141
:1051E000620F711D811D911D42E0660F771F881FA0
:1051F000991F4A95D1F708958F929F92AF92BF92CF
:10520000CF92DF92EF92FF926B017C01D0DF4B01D6
:105210005C01C114D104E104F104D9F04ED3C7DF1D
:10522000681979098A099B09683E734081059105CF
:1052300080F321E0C21AD108E108F10888EE880E57
:1052400083E0981EA11CB11CC114D104E104F10437
:1052500031F7FF90EF90DF90CF90BF90AF909F908D
:105260008F900895789484B5826084BD84B5816000
:1052700084BD85B5826085BD85B5816085BDEEE65E
:10528000F0E0808181608083E1E8F0E0108280813D
:1052900082608083808181608083E0E8F0E08081AB
:1052A00081608083E1EBF0E0808184608083E0EBCB
:1052B000F0E0808181608083EAE7F0E080818460B3
:1052C000808380818260808380818160808380810F
:1052D000806880831092C10008951F93CF93DF935D
:1052E000182FEB0161E07DD0209731F460E0812F31
:1052F000DF91CF911F91B1C0CF3FD10511F461E093
:10530000F6CFE12FF0E0E859FF4FE491E33031F1BF
:1053100040F4E130B1F0E230E1F0C038D1057CF783
:10532000E5CFE73029F1E83059F1E430B1F7809169
:105330008000806280938000D0938B00C0938A00AD
:1053400004C084B5806884BDC7BDDF91CF911F9133
:10535000089584B5806284BDC8BDF7CF8091800078
:10536000806880938000D0938900C0938800EDCF3F
:105370008091B00080688093B000C093B300E5CF07
:105380008091B00080628093B000C093B400DDCF04
:10539000833081F028F4813099F08230A9F00895AB
:1053A0008730A9F08830C9F08430B1F48091800052
:1053B0008F7D03C0809180008F7780938000089557
:1053C00084B58F7784BD089584B58F7DFBCF8091A0
:1053D000B0008F778093B00008958091B0008F7DEA
:1053E000F9CFCF93DF9390E0FC01E458FF4F249175
:1053F00080579F4FFC0184918823C9F090E0880F6B
:10540000991FFC01E854FF4FA591B491FC01E255AE
:10541000FF4FC591D49161110DC09FB7F8948C9145
:10542000209582238C938881282328839FBFDF9136
:10543000CF910895623051F49FB7F8943C91822F38
:10544000809583238C93E8812E2BEFCF8FB7F89430
:10545000EC912E2B2C938FBFEACF1F93CF93DF932A
:10546000282F30E0F901E859FF4F8491F901E45801
:10547000FF4FD491F901E057FF4FC491CC23A1F025
:10548000162F811185DFEC2FF0E0EE0FFF1FE255A4
:10549000FF4FA591B4918FB7F894EC91111108C00A
:1054A000D095DE23DC938FBFDF91CF911F910895BC
:1054B000DE2BF8CFCF93DF93282F30E0F901E859A6
:1054C000FF4F8491F901E458FF4FD491F901E0575F
:1054D000FF4FC491CC2399F081115ADFEC2FF0E0FB
:1054E000EE0FFF1FEC55FF4FA591B491EC91ED230A
:1054F00081E090E009F480E0DF91CF91089580E0B1
:1055000090E0FACFFC01918D228D892F90E0805C94
:105510009F4F821B91098F7399270895FC01918DEC
:10552000828D981731F0828DE80FF11D858D90E006
:1055300008958FEF9FEF0895FC01918D828D98174C
:1055400061F0A28DAE0FBF2FB11D5D968C91928D33
:105550009F5F9F73928F90E008958FEF9FEF089564
:10556000FC01538D448D252F30E0842F90E0821B69
:10557000930B541710F0CF96089501970895FC01EE
:10558000A48DA80FB92FB11DA35ABF4F2C91848DA4
:1055900090E001968F739927848FA689B7892C9301
:1055A000A089B1898C91837080648C93938D848D54
:1055B000981306C00288F389E02D80818F7D808357
:1055C0000895CF93DF93EC01888D8823B1F0AA89E9
:1055D000BB89E889F9898C9185FD03C0808186FDAE
:1055E0000CC00FB607FCF7CF8C9185FFF2CF8081FE
:1055F00085FFEDCFCE01C3DFEACFDF91CF910895D4
:10560000EF92FF920F931F93CF93DF93EC0181E012
:10561000888F9B8D8C8D98131AC0E889F9898081B9
:1056200085FF15C09FB7F894EE89FF896083E889EC
:10563000F98980818370806480839FBF81E090E0DE
:10564000DF91CF911F910F91FF90EF900895F62E6B
:105650000B8D10E00F5F1F4F0F731127E02E8C8D05
:105660008E110BC00FB607FCFACFE889F98980814B
:1056700085FFF5CFCE0183DFF2CFEB8DEC0FFD2F51
:10568000F11DE35AFF4FF0829FB7F8940B8FEA8920
:10569000FB8980818062D0CFCF92DF92EF92FF9220
:1056A0001F93CF93DF93EC016A017B01122FE889EE
:1056B000F98982E08083C11481EED806E104F10407
:1056C00099F060E079E08DE390E0A7019601F6D0D3
:1056D000215031094109510956954795379527952C
:1056E000211580E1380790F0E889F989108260E897
:1056F00074E88EE190E0A7019601E0D021503109D5
:10570000410951095695479537952795EC85FD85B3
:105710003083EE85FF852083188EEC89FD89108308
:10572000EA89FB89808180618083EA89FB898081A5
:1057300088608083EA89FB89808180688083EA8928
:10574000FB8980818F7D8083DF91CF911F91FF90B6
:10575000EF90DF90CF9008951F920F920FB60F92A7
:1057600011242F938F939F93EF93FF93E091E00485
:10577000F091E1048081E091E604F091E70482FD7C
:105780001BC090818091E9048F5F8F732091EA04A0
:10579000821741F0E091E904F0E0E053FB4F958F70
:1057A0008093E904FF91EF919F918F912F910F903A
:1057B0000FBE0F901F9018958081F4CF1F920F920B
:1057C0000FB60F9211242F933F934F935F936F93D4
:1057D0007F938F939F93AF93BF93EF93FF9380ED4E
:1057E00094E0CDDEFF91EF91BF91AF919F918F91AA
:1057F0007F916F915F914F913F912F910F900FBECD
:105800000F901F901895E0EDF4E01382128288EE5D
:1058100093E0A0E0B0E084839583A683B78389EF0B
:1058200091E09183808385EC90E09587848784EC78
:1058300090E09787868780EC90E0918B808B81EC5D
:1058400090E0938B828B82EC90E0958B848B86EC3E
:1058500090E0978B868B118E128E138E148E089586
:10586000AF92BF92CF92DF92EF92FF920F931F936E
:10587000CF93DF936C017B018B01040F151FEB01AC
:105880005E01AE18BF08C017D10759F06991D60163
:10589000ED91FC910190F081E02DC6010995892BD5
:1058A00079F7C501DF91CF911F910F91FF90EF9094
:1058B000DF90CF90BF90AF9008950895A1E21A2E87
:1058C000AA1BBB1BFD010DC0AA1FBB1FEE1FFF1FA4
:1058D000A217B307E407F50720F0A21BB30BE40BF4
:1058E000F50B661F771F881F991F1A9469F760953B
:1058F0007095809590959B01AC01BD01CF010895F5
:10590000EE0FFF1F0590F491E02D099409D0A59F9B
:10591000900DB49F900DA49F800D911D11240895AA
:10592000A29FB001B39FC001A39F700D811D1124E0
:10593000911DB29F700D811D1124911D0895FB01D1
:10594000DC0102C001900D9241505040D8F70895FB
:10595000DC0101C06D9341505040E0F70895F89488
:02596000FFCF77
:1059620000000000000000400000000000000000F5
:1059720000000000CDCCCC3D00008C420000008035
:10598200BF0000C8420000003F00007A440000B996
:1059920043000070420000803F6F12033A6F12030F
:1059A2003A000048420000A0400000FEFFFFFF0155
:1059B200E8030000FFFF00000000FFFFFFFFFFFF02
:1059C200FFFFFFFF0100010001002000300038004E
:1059D200FFFFFFFF012702FF00400F6C0FFE0026B2
:1059E2000FA70CFD00B80E120FFC00FE0EA70CF65E
:1059F20000EF0FA70CF500C50E2E10F400B80F45EE
:105A020010DE0071140A17DD00E015A70CDA00F9A8
:105A1200110112D90025171112E200E110A70CE1C1
:105A2200001C11A70CE0009111A70CD600FB1AA7CD
:105A32000CD5009E13A70CD4002A13A70CD3009BED
:105A420012A70CC0002012A70CF000641BA70CEDDB
:105A520000211BA70C00000000002B302CB02AE113
:085A62002A822A9C2A8E2A00E8
:00000001FF
