:100000006BC0000091C000008FC000008DC00000D8
:100010008BC0000089C0000087C0000085C00000C0
:1000200083C0000081C000007FC000007DC00000D0
:100030007BC000000C943B2277C0000075C000001C
:100040000C94CC2671C000000C9468290C949A2959
:100050006BC0000069C0000067C0000065C0000000
:1000600063C0000061C0000005A84CCDB2D44EB9F9
:100070003836A9020C50B9918688083CA6AAAA2A4B
:10008000BE000000803F00000008000201000003E5
:100090000407000000000000000001020408102016
:1000A000408001020408102001020408102004040A
:1000B0000404040404040202020202020303030310
:1000C000030300000000250028002B0000000000B2
:1000D000240027002A00BF2911241FBECFEFD8E03B
:1000E000DEBFCDBF11E0A0E0B1E0E8EFF4E502C073
:1000F00005900D92A83DB107D9F724E0A8EDB1E035
:1001000001C01D92AF3DB207E1F710E0CCE6D0E0B0
:1001100004C02197FE010E944B2ACB36D107C9F7B4
:100120000E9452230C947A2A6BCF611102C00C9466
:10013000D5276130E1F362E0FACF662319F061E080
:100140000C94112860E0FCCF90E080E008950F93BC
:100150001F93009709F487C06115710509F483C0E6
:1001600000911C0110911D0120911E0130911F0171
:100170000E3F1F4F2F4F3F4F09F066C04FEF5FEF0D
:10018000BA0140931C0150931D0160931E017093AE
:100190001F0140911C0150911D0160911E01709141
:1001A0001F01DC011296ED91FC9180819181A28169
:1001B000B3818093480290934902A0934A02B0937E
:1001C0004B0284819581A681B781809344029093EC
:1001D0004502A0934602B093470280859185A2858F
:1001E000B3858093400290934102A0934202B09362
:1001F000430284859585A685B78580933C029093BC
:100200003D02A0933E02B0933F021092380210923A
:10021000390210923A0210923B023DD580E796E0F7
:100220009093D9018093D8019093DB018093DA01F8
:1002300021D4009731F421E030E030934D02209337
:100240004C021F910F91089500911C0110911D0106
:1002500020911E0130911F01DB010D931D932D9301
:100260003C93139796CF8FEF9FEFEBCF8F929F9298
:10027000AF92BF92CF92DF92EF92FF921F93CF93F4
:10028000DF934B015C0110914F0282E090E090936C
:100290004D0280934C0281149104A104B10441F4F5
:1002A00080914F02811104C080914E02C1E0811102
:1002B000C0E0C12CD12C760180914F02811106C083
:1002C00080914E02811102C0CC23D9F083E090E0EE
:1002D00090934D0280934C02CC2379F1CCE9DFEF6F
:1002E000111102C00E94D409CE01DF91CF911F915C
:1002F000FF90EF90DF90CF90BF90AF909F908F9046
:1003000008956AE070E080E090E00E943B2780E181
:10031000C80E87E2D81EE11CF11C8FEF88169806E4
:10032000A806B80631F0C1E08C149D04AE04BF04E9
:1003300008F0C0E080E0D2D3BFCFD0E0C0E0D0CFA3
:10034000CF92DF92EF92FF920F931F93CF93DF93A1
:100350008F3F910511F008F050C020914C02309170
:100360004D022330310539F020914C0230914D027D
:100370002130310531F424E030E030934D022093F8
:100380004C026A017B01EC0182309105A0F011E082
:10039000AE01C701B6016DD3AB01BC01CE01112383
:1003A000F9F0DF91CF911F910F91FF90EF90DF90C7
:1003B000CF900C94FD0B8C01000F111F08521E4FA3
:1003C000D8018D919C91892B11F30E94070C029703
:1003D000F1F6D801ED91FC91CE010995182FD8CFF7
:1003E0000E941F0C90E080E0DF91CF911F910F9150
:1003F000FF90EF90DF90CF9008958FEF9FEFF4CFB5
:1004000080E06CC3CF93DF9386E090E090934D0241
:1004100080934C02BCD3EC01E8EDF1E084E0DF0115
:100420001D928A95E9F758D710924D0210924C020E
:10043000CE01DF91CF91089580914E020895809171
:100440003702089560931C0170931D0180931E0173
:1004500090931F0190E080E00895CF92DF92EF9299
:10046000FF926B017C019F7720E030E040E859E586
:100470000E94532487FF2BC020E030E040E05FE380
:10048000C701B6010E94F02587FD0EC020E030E0D4
:1004900040E05FE3C701B6010E94DC23FF90EF90CC
:1004A000DF90CF900C94282520E030E040E05FEB17
:1004B000C701B6010E94F025181684F420E030E050
:1004C000A901C701B6010E94F4256B017C01C70197
:1004D000B601FF90EF90DF90CF90089520E030E0DC
:1004E00040E05FE3C701B6010E94DB23FF90EF907D
:1004F000DF90CF900C9440244F925F926F927F9246
:100500008F929F92AF92BF92CF92DF92EF92FF9223
:100510006091D4047091D5048091D6049091D70451
:100520000E94ED24209118013091190140911A0187
:1005300050911B010E94DC239B01AC010E94DC2333
:100540002BED3FE049E450E40E94F4252091140192
:100550003091150140911601509117010E945724C6
:100560000E94572620910C0130910D0140910E01FF
:1005700050910F010E94F42520911001309111013A
:1005800040911201509113010E94DC23209100013F
:100590003091010140910201509103010E94F02528
:1005A00087FDCCC08091040190910501A0910601C6
:1005B000B09107018093D9049093DA04A093DB04EF
:1005C000B093DC046091D9047091DA048091DB046B
:1005D0009091DC0442DF6B017C0120E030E040E8D8
:1005E00053E40E9453246FEF87FF0EC020E030E0F9
:1005F000A901C701B6010E94F02560E087FD04C093
:10060000C701B6010E94BF248DE097DD6091D4043C
:100610007091D5048091D6049091D7046F5F7F4F7D
:100620008F4F9F4F6093D4047093D5048093D6046A
:100630009093D7040E94ED2420911401309115016C
:1006400040911601509117010E945324811108C056
:100650001092D4041092D5041092D6041092D704AC
:10066000C0900A02D0900B02E0900C02F0900D02B4
:100670008FEFC81AD80AE80AF80AC0920A02D09284
:100680000B02E0920C02F0920D02C114D104E104BD
:10069000F10499F480910E0290910F02A091100242
:1006A000B09111020196A11DB11D80930E0290938D
:1006B0000F02A0931002B09311028090120290904A
:1006C0001302A0901402B090150260910E02709176
:1006D0000F0280911002909111020E94EB24A5015B
:1006E00094010E94F42520E030E040E85FE40E949D
:1006F000F4252B013C01C701B6010E94EB24A501A2
:1007000094010E94F4259B01AC01C301B2010E9437
:10071000DC23609306027093070280930802909393
:100720000902FF90EF90DF90CF90BF90AF909F9025
:100730008F907F906F905F904F9008958091080107
:1007400090910901A0910A01B0910B0133CF1F9341
:10075000CF93DF93E0EFF1E08BE2DF011D928A950A
:10076000E9F780E090E0A0E2B1E486A397A3A0A718
:10077000B1A78DEC9CECACECBDE382A393A3A4A346
:10078000B5A386E99DE2AAE6BBE884839583A683A8
:10079000B78383EC96ECA5E4BBE580879187A287BD
:1007A000B3878FE19EE9A6E5BDE984879587A68793
:1007B000B7878DE792EBAEE7BCE6808B918BA28B7F
:1007C000B38BA4EEB1E0B383A283ECEDF1E011961C
:1007D000FC93EE9385E491E09183808393838283FD
:1007E000958384839783868384E092E015969C9317
:1007F0008E93149784EF91E013969C938E931297A7
:1008000086E092E017969C938E931697E9EDF4E0BC
:1008100084E0DF011D928A95E9F7CAECD4E08FE00D
:10082000FE0111928A95E9F711E01E8781E090E0C0
:10083000A0E0B0E089839A83AB83BC8361E08DE064
:1008400074DC1D831A861B861C861D86DF91CF9162
:100850001F9108958091CA04811103C081E08093A3
:10086000CA0408954F925F926F927F928F929F92E7
:10087000AF92BF92CF92DF92EF92FF920F931F93AE
:10088000F8944090270250902802609029027090BE
:100890002A02C0901B02D0901C02E0901D02F09032
:1008A0001E02452B09F0A6C09B01AC012419350995
:1008B0004609570929013A010091230210912402A7
:1008C000209125023091260248015901840C951C83
:1008D000A61CB71C80169106A206B306A0F40091D0
:1008E0001F021091200220912102309122020F5FFD
:1008F0001F4F2F4F3F4F00931F0210932002209352
:100900002102309322028092230290922402A0922C
:100910002502B092260200911F0210912002209120
:1009200021023091220280922B0290922C02A092FE
:100930002D02B0922E0200932F02109330022093CA
:100940003102309332026093270270932802809321
:10095000290290932A02A301920160EA76E881E0DD
:1009600090E00E941A2A6C0D7D1D8E1D9F1D6093C4
:100970001B0270931C0280931D0290931E02009133
:100980001C0110911D0120911E0130911F010F3F8C
:100990001F4F2F4F3F4FF1F000911C0110911D018F
:1009A00020911E0130911F010E3F1F4F2F4F3F4FCF
:1009B00089F0C0901C01D0901D01E0901E01F090C4
:1009C0001F0121E08C149D04AE04BF0408F420E054
:1009D0002093370278941F910F91FF90EF90DF9052
:1009E000CF90BF90AF909F908F907F906F905F90CF
:1009F0004F9008954B015C0184189508A608B7082C
:100A0000A3019201261B370B480B590B6415750582
:100A100086059705E0F082169306A406B50640F415
:100A200020E030E0A90181149104A104B104A1F4F3
:100A300060EA76E881E090E00E941A2AA701960118
:100A4000261B370B480B590BCA01B901C3CF8216BD
:100A50009306A406B50660F7A501940160EA76E85E
:100A600081E090E00E941A2A6C0D7D1D8E1D9F1D55
:100A7000B1CFF8CECF93DF9300D000D0CDB7DEB7A3
:100A80001C821B821A821982109233021092340245
:100A90001092350210923602BE016F5F7F4FCE0179
:100AA00003960E941F2269817A818B819C810E941A
:100AB000161B009761F4BE016F5F7F4FCE01039656
:100AC0000E942B2269817A818B819C812CD50F9089
:100AD0000F900F900F90DF91CF910895FF920F9399
:100AE0001F93CF93DF93082F60E070E0CB010E944B
:100AF0003B27FF24F3940E94011AEC01892B89F013
:100B000010E0CE3F8FEFD80769F0002361F160E07D
:100B100070E0CB010E943B2781E090E0892B59F3E4
:100B200022C011E023D5EC01892B21F0CE3F8FEFBD
:100B3000D80759F711111EC011E0229609F410E0F0
:100B40000E94B219EC01892B21F0CE3F8FEFD8071C
:100B5000E1F6111111C011E0CE3F8FEFD80709F473
:100B600010E001110BC0CE01DF91CF911F910F91C9
:100B7000FF90089511E0E4CF11E0F3CF60E070E062
:100B8000CB010E943B271F25812F90E0C7CFCF9339
:100B9000DF9380913702882321F060E070E0CB0181
:100BA0004CD635D6D0E0C0E0892B71F06AE070E019
:100BB00080E090E00E943B2781E090DF28D62196DC
:100BC000C03D27E0D20781F727D60E946A1B10920A
:100BD0004F0210924E021092480210924902109257
:100BE0004A0210924B021092440210924502109257
:100BF0004602109247021092400210924102109257
:100C000042021092430210923C0210923D02109256
:100C10003E0210923F021092380210923902109256
:100C20003A0210923B024EEF5FEF6FEF7FEF40937F
:100C30001C0150931D0160931E0170931F011092BF
:100C40003702EBE2F2E028E0DF011D922A95E9F796
:100C500010922702109228021092290210922A0262
:100C60001092230210922402109225021092260262
:100C700010921F0210922002109221021092220262
:100C800010921B0210921C0210921D0210921E0262
:100C9000DF91CF91089510925B0210925C02109246
:100CA0005D0210925E0210925A028091630290914E
:100CB0006402909359028093580210925702109246
:100CC0005602109252021092530210925402109245
:100CD00055021092600210925F0290E080E0089549
:100CE000CF92DF92EF92FF920F931F93CF938C01DD
:100CF000892B09F055C020916302309164028091E4
:100D000058029091590240916302509164025093AD
:100D10005902409358022817390781F01092570260
:100D200010925602109252021092530210925402E4
:100D3000109255021092600210925F02809163023D
:100D400090916402019761F580915F029091600239
:100D5000892B21F480912001811112C080915F02C2
:100D6000909160020197E1F48091520290915302B8
:100D7000A0915402B09155020197A105B10581F4EB
:100D80001092520210925302109254021092550285
:100D90001092200182E090E09093600280935F02C5
:100DA0008091630290916402019709F01CC18091C7
:100DB000790290917A028017910709F014C180910D
:100DC000750290917602A0917702B0917802009717
:100DD00009F409C12091740221110DC040917502DE
:100DE000509176026091770270917802452B462BE4
:100DF000472B09F4F8C020915F0230916002223045
:100E0000310509F0F0C0209156022111ECC0FC011F
:100E1000C080D180E280F38080915A02882309F457
:100E2000D3C08091660290916702892B09F4FDC0BE
:100E3000209166023091670281E02230310509F08D
:100E400080E02091660230916702C1E021303105D7
:100E500049F02091660230916702C1E022303105ED
:100E600009F0C0E0882309F456C020917002309147
:100E700071024091720250917302C701B6010E9443
:100E8000F02587FD14C020917002309171024091CD
:100E900072025091730260915B0270915C028091CA
:100EA0005D0290915E020E94532487FD22C0209132
:100EB0007002309171024091720250917302C70129
:100EC000B6010E94F025181634F520917002309179
:100ED0007102409172025091730260915B027091B5
:100EE0005C0280915D0290915E020E945324811108
:100EF00012C08091680290916902A0916A02B0913B
:100F00006B02892B8A2B8B2B19F481E0809357027B
:100F100081E080935602CC2309F456C020917002E0
:100F2000309171024091720250917302C701B60173
:100F30000E94532487FF14C02091700230917102E7
:100F4000409172025091730260915B0270915C0259
:100F500080915D0290915E020E94F02587FF22C081
:100F6000209170023091710240917202509173028F
:100F7000C701B6010E945324811126C0209170023E
:100F800030917102409172025091730260915B0244
:100F900070915C0280915D0290915E020E94F0254A
:100FA000181694F48091680290916902A0916A02E7
:100FB000B0916B02892B8A2B8B2B19F481E08093E3
:100FC000570281E08093560281E090915602911180
:100FD00080E080935A02C0925B02D0925C02E09261
:100FE0005D02F0925E02012B09F067C180915F0201
:100FF00090916002892BD9F41092650210925602EA
:1010000080912001882379F082E090E09093600243
:1010100080935F021092200120916302309164025C
:1010200081E0232BE9F080E01BC081E00ACF109221
:10103000200180916502882349F010925702109296
:10104000600210925F0210926502EDCF8091630200
:1010500090916402892BE1F0809156021092560221
:1010600020915F02309160022230310509F45EC0A8
:1010700088F42115310509F448C02130310509F4FF
:10108000F3C010925702109256021092650238C0B7
:1010900081E0E6CF2330310509F4B1C024303105B9
:1010A00081F7409152025091530260915402709125
:1010B0005502411551056105710561F04150510915
:1010C0006109710940935202509353026093540294
:1010D0007093550240915202509153026091540214
:1010E00070915502452B462B472BD9F42091610274
:1010F000309162022130310509F046C0109257024A
:101100001092600210925F020CC08091200188232F
:1011100041F082E090E09093600280935F02109231
:1011200020011092500280915702CEC08823C9F34B
:101130008091680290916902A0916A02B0916B025D
:10114000181619061A061B060CF07DC08091630262
:1011500090916402019709F076C0809168029091A5
:101160006902A0916A02B0916B028093520290933F
:101170005302A0935402B093550283E090E0909301
:10118000600280935F02CDCF40916C0250916D025E
:1011900060916E0270916F02452B462B472BA9F090
:1011A0001092570280916C0290916D02A0916E0294
:1011B000B0916F028093520290935302A093540215
:1011C000B093550281E090E0DACF882399F08091C6
:1011D000210190912201A0912301B09124018093DB
:1011E000520290935302A0935402B093550284E0AC
:1011F00090E0C5CF1092570282E090E0C0CF80917E
:10120000520290915302A0915402B091550200975E
:10121000A105B10559F00197A109B10980935202C6
:1012200090935302A0935402B093550280915202BE
:1012300090915302A0915402B0915502892B8A2BB0
:101240008B2B09F06ECF8091210190912201A0910A
:101250002301B0912401892B8A2B8B2B09F44ECFCB
:1012600081E080935702B3CF4091520250915302D4
:101270006091540270915502411551056105710547
:1012800061F0415051096109710940935202509334
:101290005302609354027093550240915202509150
:1012A00053026091540270915502452B462B472BF7
:1012B00009F037CF8111C7CF9FCF8091500288238B
:1012C00009F431CF80915102CF911F910F91FF907E
:1012D000EF90DF90CF90089510925B0210925C0225
:1012E00010925D0210925E0210925A0210926002F9
:1012F00010925F02109259021092580210927A02D4
:1013000010927902109257021092560210925202D5
:1013100010925302109254021092550210925102F0
:10132000109250021092750210927602109277027B
:101330001092780210927402109270021092710250
:10134000109272021092730288EE93E0A0E0B0E077
:101350008093210190932201A0932301B093240153
:1013600010926C0210926D0210926E0210926F0237
:10137000109268021092690210926A0210926B0237
:10138000109267021092660281E080932001109211
:10139000650210926402109263021092620210922F
:1013A000610290E080E00895809163029091640270
:1013B000892B19F580912001882351F080916502D5
:1013C000811106C081E080935102809350020895FC
:1013D000209165023091200181E090E0332311F0EB
:1013E00090E080E030E082239323892B21F010925B
:1013F000510281E0EACF10925002089582E090E01D
:10140000FA01918380838FEF9FEF0895CF93DF934D
:10141000EA01009711F00E94871C1982188290E05F
:1014200080E0DF91CF910895DB01009719F48FEFF1
:101430008C9308952EEF2C930F968F30910508F022
:1014400033C0FC01EA5DF54F0C944B2A520A500A56
:101450004E0A4C0A4A0A460A480A440A420A400A04
:101460003D0A390A350A3B0A540A80E311968C93E7
:10147000089589E2FBCF82E2F9CF11961C9208957C
:1014800083E2F4CF81E2F2CF81E1F0CF87E2EECFC9
:101490008AE2ECCF80E1EACF84E2E8CF88E2E6CFCF
:1014A00086E2E4CF81E3E2CF80E2E0CF8091870261
:1014B00090918802089590938802809387020895FE
:1014C00080918602089590918602892B80938602EE
:1014D0000895982F909580918602892380938602A3
:1014E00008958091850208958091830290918402ED
:1014F00008956115710559F0FB0130E020E070E0BE
:1015000060E02417350719F06115710511F0CB0162
:101510000895A081B181A817B90709F4BF012F5F11
:101520003F4F3696EECF8091890281111CC062D266
:1015300068D290937C0280937B020E949A140E944E
:10154000AC149093800280937F020E941C190E9429
:10155000231990937E0280937D0281E0809389021B
:1015600090E080E0089584EF9FEF08958F929F921E
:10157000AF92BF92CF92DF92EF92FF920F931F93A1
:10158000CF93DF93CDB7DEB72A970FB6F894DEBFBF
:101590000FBECDBF1A86198618861F821E821D8235
:1015A0001C821B821A8219828091890207EF1FEF29
:1015B000882309F49CC08E010D5F1F4F9E012B5F95
:1015C0003F4FAE01495F5F4FBE01675F7F4F90E0C5
:1015D00080E00E949C1A8C01009721F005960297EA
:1015E00008F0DBC029853A852115310509F402C1CF
:1015F000ED80FE804B815C81B701640F751F8F8188
:1016000098858617970708F4F5C0E20EF31ED701F8
:101610009C91903C09F07FC04230510508F47BC09A
:1016200011968C914091870250918802452B09F4C4
:101630009CC0913F08F071C02CE1290F2D3008F4B7
:101640008BC02DE2290F203108F489C0903C21F491
:101650008150823008F483C088E3890F8B3008F40E
:1016600081C094E1C92E9AE0D92EEEEFF9E06D81A8
:101670007E81AE014F5F5F4F89859A8509955C0138
:10168000C114D104A1F189809A808114910479F167
:101690008B819C818815990508F487C010E000E0D3
:1016A0004B815C8170E060E0C7010E94732A0115E4
:1016B0001105E9F449815A8169857A858D819E8178
:1016C000680F791FC501F6010995E980FA800D813F
:1016D0001E812F81388549855A856FEF7FEF81E024
:1016E00090E00E94381A8C01892B09F056C0C8017D
:1016F0002A960FB6F894DEBF0FBECDBFDF91CF9113
:101700001F910F91FF90EF90DF90CF90BF90AF901F
:101710009F908F90089580E085CF30E020E0220FE9
:10172000331FF901E558FD4F0190F081E02D30970E
:1017300009F497CF892F90E00995009709F491CF8C
:10174000DC011296ED91FC9113971496CD90DC90EC
:10175000309709F08CCF1FC021E030E0E0CF22E0CD
:1017600030E0DDCF23E030E0DACFD12CC12CE6E051
:10177000FAE09F3F09F07BCFE0917B02F0917C0281
:10178000309721F4C90104EF1FEF0CC08FEF90E0F8
:1017900009950097A9F604EF1FEF89859A850097B0
:1017A00009F4A5CF0E94871CA2CF0E94651B8C0163
:1017B00089859A850E94871C70E060E0C4010E94C0
:1017C000FE1A98878F830E94351A9E838D836F81BE
:1017D00078856115710559F0C8010E94131E9A871A
:1017E000898706EF1FEF892B09F058CF59CF08EFF3
:1017F0001FEF56CF08EF1FEFD0CF20918902222391
:1018000019F020E00C94B11487EF9FEF08958091B8
:1018100087029091880208950E9428190E948218D8
:10182000F5D0EBE7F2E088E0DF011D928A95E9F759
:101830001092890290E080E008950C94DF1621E078
:1018400040E050E0BA010C94B11486E090E0FA0157
:101850009183808390E080E0089547E050E068E461
:1018600071E047CEDF92EF92FF920F931F93CF93D9
:10187000DF938A01EC01C60FD71FE0908D02F09034
:101880008E02D9800E944D1BD816190678F082E08E
:1018900090E0F801918380838EEF9FEFDF91CF91ED
:1018A0001F910F91FF90EF90DF900895EF2841F482
:1018B00082E090E0F8019183808384EF9FEFEECF88
:1018C000898180938C0290E00196F8019183808356
:1018D00090E080E0E3CFCF93DF93EA010E9490177E
:1018E000882321F00E945A1B0E94911782E090E009
:1018F000998388838BEF9FEFDF91CF910895CF93EA
:10190000DF93EB0186E0FB0111928A95E9F78FEFF7
:101910008883D6DD8983E5DD8A83E6DD9D838C833C
:10192000DF91CF910895CF93DF93EA010E9493173F
:10193000811109C082E090E09983888385EF9FEF51
:10194000DF91CF91089590E080E0B5DD81E090E0F7
:101950009983888390E080E0F3CF0F931F93CF9318
:10196000DF93EA018C01060F171F0E949317811164
:101970000BC082E090E09983888385EF9FEFDF9131
:10198000CF911F910F910895F8018181823038F035
:1019900082E090E0998388838EEF9FEFF0CF81E023
:1019A00090E089DD88E090E09983888390E080E092
:1019B000E6CFCF93DF930097D1F4EB01FB01329692
:1019C00086E0DF011D928A95E9F78FEF888385E035
:1019D00089831A820E944D1B8B830E944C1B9D831E
:1019E0008C8381E08E838F83DF91CF910895DF9187
:1019F000CF911ACD8DE29CE090938B0280938A0266
:101A0000089580918A0290918B02089510928B0222
:101A100010928A02089580918D0290918E0208950D
:101A2000411105C0611571058105910561F0609353
:101A30008D0270938E0280938F0290939002409358
:101A4000910281E0089580E00895FF920F931F9323
:101A5000CF93DF938A01EC01C60FD71FF9800E9454
:101A60004D1BF816190668F082E090E0F8019183AA
:101A700080838EEF9FEFDF91CF911F910F91FF90A9
:101A800008956C817D818E819F814B81C9DF811199
:101A900008C082E090E0F8019183808384EF9FEF9B
:101AA000EACF898180938C0290E00196F8019183BE
:101AB000808390E080E0DFCFCF93DF93EA01FC01E9
:101AC000E60FF71F64817581868197814381A8DFC6
:101AD000811109C082E090E09983888384EF9FEFB1
:101AE000DF91CF91089581E090E09983888390E021
:101AF00080E0F6CFEDE8F2E04081518162817381B0
:101B0000480F511D611D711D408351836283738392
:101B10000895CF93C0918C024C2F50E060918D02BC
:101B200070918E0201960E946A2A8C2FE3DF109238
:101B30008C02CF910895009799F480918D02909135
:101B40008E022FEFFB012083892B59F020918C020C
:101B500030E02F5F3F4F2417350719F4CB01D9CF61
:101B600063CC0895009799F480918D0290918E0234
:101B70002FEFFB012083892B59F020918C0230E05C
:101B80002F5F3F4F2417350719F4CB01C2CF4CCC40
:101B9000089523E1AC01249FC001259F900D1124DD
:101BA000E0919602F0919702E80FF91F23813481AA
:101BB0002250310981E02230310508F080E008959B
:101BC0000F931F93CF93DF93009198021091990286
:101BD000D0E0C0E080E00C171D0749F491E08111CE
:101BE00090E0892FDF91CF911F910F91089581117E
:101BF000F5CFCE01CEDF2196EECFA0919602B09127
:101C00009702109729F1209198023091990282173A
:101C10009307F0F453E1589F9001599F300D112420
:101C2000A20FB31FED91FC911197309789F0129696
:101C30008C91681768F48BE0689FE00DF11D11240A
:101C400080819181892B21F081E09281491708F0F0
:101C500080E008959C0143E1429FC001439F900DA5
:101C60001124E0919602F0919702E80FF91F838505
:101C7000823091F481E090E0658176814091250188
:101C8000509126016417750711F490E080E0892BCC
:101C900019F081E0232B09F080E00895EF92FF9284
:101CA0000F931F93CF93DF93EA01FC01E60FF71F19
:101CB00002811381E480F5804F2D6E2DC8019DDFD8
:101CC00081110DC082E090E0998388838EEF9FEFB1
:101CD000DF91CF911F910F91FF90EF900895C80170
:101CE00058DF882339F082E090E09983888388EF79
:101CF0009FEFEECF10932C0100932B01E0922D016A
:101D0000F0922E0181E090E09983888390E080E05A
:101D1000DFCFCF92DF92EF92FF920F931F93CF937B
:101D2000DF937A01EC01C60FD71FC0902B01D09032
:101D30002C0100912D0110912E01412F602FC60121
:101D40005CDF811110C082E090E0F7019183808315
:101D50008AEF9FEFDF91CF911F910F91FF90EF904E
:101D6000DF90CF900895C60114DF882341F082E010
:101D700090E0F7019183808388EF9FEFEBCF4C8158
:101D80005D816E817F819A8189818F3F41F082E000
:101D900090E0F701918380838EEF9FEFDBCFE3E14B
:101DA000EC9D9001ED9D300D1124E0919602F09193
:101DB0009702E20FF31F0190F081E02D2BE0029FCC
:101DC000E00DF11D11240190F081E02D27E0129F1C
:101DD000E00DF11D1124808391838B8182834383E5
:101DE0005483658376831F5F10932E0181E090E01A
:101DF000F7019183808390E080E0ACCFEF92FF9277
:101E00000F931F93CF93DF937A018C01060F171F57
:101E1000C0919602D0919702209781F021E030E0A6
:101E2000F801828193814091980250919902841720
:101E3000950710F030E020E0232B71F482E090E071
:101E4000F701918380838EEF9FEFDF91CF911F91F8
:101E50000F91FF90EF90089543E1489F9001499FB3
:101E6000300D1124C20FD31F94DE882341F082E08D
:101E700090E0F7019183808388EF9FEFE6CFF80130
:101E80002481358120383105C8F687818111D6CF6C
:101E90004181842F90E08F7E009741F082E090E0B6
:101EA000F7019183808386EF9FEFCFCF4F833E83EF
:101EB0002D83268128871986223010F421E0288777
:101EC00021E030E0F70131832083BFCF88E090E04C
:101ED000FA019183808390E080E00895FB018FEF09
:101EE000808381E181838FEF9FEF9383828380E8FA
:101EF00090E095838483168217820895FB018FEF0B
:101F0000808391E0918382839383848384E38583B8
:101F100081E090E0978386830895DF92EF92FF92AD
:101F20000F931F93CF93DF93EA01FC01E60FF71F96
:101F30008181813071F082E090E0998388838FEF16
:101F40009FEFDF91CF911F910F91FF90EF90DF9066
:101F5000089582819381D4802581E680F780009165
:101F60009602109197020115110539F482E090E074
:101F7000998388838CEF9FEFE4CF40919802509132
:101F800099028417950738F082E090E0998388835E
:101F90008EEF9FEFD6CF892B39F082E090E09983C6
:101FA000888386EF9FEFCDCF8D2D8D7FB1F72130C8
:101FB000A1F781E0D11006C091E0E916F10431F0FB
:101FC00080E004C0E2E0EE16F104D0F3882329F3A8
:101FD00090E080E0DEDD882339F082E090E09983B4
:101FE000888388EF9FEFADCFF801D38681E08487A7
:101FF000F686E586108A178681E090E099838883CB
:1020000090E080E09ECF4CE050E062E771E071CA62
:102010008F929F92BF92CF92DF92EF92FF920F9397
:102020001F93CF93DF93EA01FC01E60FF71F828134
:1020300093810481B580E0919602F09197023097E8
:1020400091F482E090E0998388838CEF9FEFDF9199
:10205000CF911F910F91FF90EF90DF90CF90BF90A5
:102060009F908F9008952091980230919902821745
:10207000930738F082E090E0998388838EEF9FEF9A
:10208000E6CF23E1289F6001299FD00C1124EC0D9D
:10209000FD1DE080F180E114F10499F282810817BE
:1020A00048F78BE0089F80011124E00EF11EF70134
:1020B00080819181892B29F6BB20E1F2F7E0BF9E58
:1020C00040011124C4010E944E1CF70191838083BA
:1020D000E0919602F0919702EC0DFD1D0190F081C8
:1020E000E02DE00FF11F80819181009739F482E0AB
:1020F00090E0998388838DEF9FEFA9CFA40170E0D2
:1021000060E00E94732A8091960290919702C80E17
:10211000D91EF60180819181080F191FF801B28242
:1021200081E090E09983888390E080E090CFAF9247
:10213000BF92CF92DF92FF920F931F93CF93DF93C3
:10214000EA01FC01E60FF71F82819381F480009180
:102150009602109197020115110581F482E090E03A
:10216000998388838CEF9FEFDF91CF911F910F911F
:10217000FF90DF90CF90BF90AF900895209198028C
:10218000309199028217930738F082E090E09983AA
:1021900088838EEF9FEFE8CF2FEF2F0D2C3FA8F70E
:1021A00023E1289F6001299FD00C11240C0D1D1DD7
:1021B000F80180819181892B89F6FBE0FF9E500117
:1021C0001124C5010E944E1CF80191838083E09187
:1021D0009602F0919702EC0DFD1D80819181009790
:1021E00039F482E090E0998388838DEF9FEFBCCF34
:1021F000A50170E060E00E94732AE0919602F091E0
:102200009702EC0DFD1DF28281E090E099838883B6
:1022100090E080E0A9CFCF92DF92EF92FF920F93F0
:102220001F93CF93DF93860F971FFC0102811381C9
:102230008091960290919702892B81F082E090E044
:10224000FA01918380838CEF9FEFDF91CF911F91F3
:102250000F91FF90EF90DF90CF900895C801B0E00C
:10226000A0E00197A109B1098F3F9F4FA105B105DA
:1022700040F082E090E0FA01918380838EEF9FEF3F
:10228000E4CF7A0183E1809F6001819FD00C11240B
:10229000C6010E944E1CEC01009741F482E090E0E0
:1022A000F701918380838DEF9FEFCFCFA60170E080
:1022B00060E00E94732AD0939702C0939602109315
:1022C00099020093980290E080E02FEF3FEF41E009
:1022D00061E070E08017910741F481E090E0F70140
:1022E0009183808390E080E0B0CF3A8B298B1B866E
:1022F0004C877E876D87188A1F8601966396EACF82
:10230000CF92DF92EF92FF920F931F93CF93DF93C1
:10231000EC01D12CC12C10E000E0F12CE12C6A8101
:1023200070E006171707BCF0660F771FAE014F5E0F
:102330005F4FC7010E94B31C009721F02FEF3FEFC2
:102340003A8B298BDF91CF911F910F91FF90EF90E6
:10235000DF90CF900895E881F981EC0DFD1D438158
:1023600054818D859E85489F9001499F300D589FCF
:10237000300D1124C90101960115110519F44F8181
:1023800044FD049661E070E00E94FE1AE816F9062A
:1023900008F47C010F5F1F4F8BE0C80ED11CBFCF2C
:1023A000F894209194023091950281E02115310535
:1023B00009F080E0232B09F0789408952F923F9242
:1023C0004F925F926F927F928F929F92AF92BF9245
:1023D000CF92DF92EF92FF920F931F93CF93DF93F1
:1023E0003C01660E771EF301828193814C01B12C72
:1023F000A12CC0919602D0919702209769F021E01C
:1024000030E060919802709199028617970710F05A
:1024100030E020E0232BD1F482E090E0FA019183B8
:1024200080838EEF9FEFDF91CF911F910F91FF90EF
:10243000EF90DF90CF90BF90AF909F908F907F9064
:102440006F905F904F903F902F90089580922F0152
:1024500090923001A0923101B092320163E1689F05
:102460009001699F300D1124C20FD31FF3018181A8
:10247000833040F082E090E0FA019183808386EF20
:102480009FEFD1CF2A012B813C81232BF1F42881AE
:1024900039819F8191FF2EC0232B09F46FC02091B9
:1024A0009B029A81422F490F5527551FBA0141E0DF
:1024B00050E06138710514F050E040E0452B09F41C
:1024C0005DC02A87920F90939B028150823008F45E
:1024D00081C066DF882309F4D8C0F301818181308F
:1024E00009F48DC008F47BC0823009F4C6C090E0C6
:1024F00080E0ADC0232B09F441C020919A029A815B
:10250000E22FE90FFF27FF1F41E050E0ED3FF1050B
:1025100014F050E040E0452B89F12A87920F909308
:102520009A02D3CFA081B181A20FB31F11966C91F3
:10253000060F111D0196295F3F4F8417950794F3ED
:102540008D859E85089F1001099F300C189F300CC7
:102550001124C114D104D1F48F8184FF17C00E94CB
:102560004C1BF5E02F0E311C21E08215930508F479
:1025700020E0A701455F5F4F21110EC082E090E08F
:10258000F2019183808387EF9FEF4DCF0E944C1B18
:102590002FEF221A320AE8CF88819981E80EF91EBE
:1025A000F70114830383FFEFCF1ADF0A7A018A81D0
:1025B0008C151D0409F00CF48CCFE881F981EE0D27
:1025C000FF1D428150E030E020E010E000E090E0AC
:1025D00080E0B3CFF12CE12CD12CC12CE8CF81E0ED
:1025E00090E09C838B83ECDA882309F480CF81E030
:1025F00090E00E945B0A80E40E94690A78CF898992
:102600009A89019661F083E090E09C838B8382E05D
:1026100090E00E945B0A80E40E94630A68CF8D818B
:102620009E81209125013091260182179307D1F4D4
:102630006091290170912A01AE014F5E5F4F809138
:102640002701909128010E94D21D0097E1F2789411
:1026500022E030E0F20131832083892B99F08DEF65
:102660009FEFE1CE89288A288B2869F6892B59F6B5
:10267000CE0146DE188A1F86E8CF82E090E09C8378
:102680008B8335CF90E080E0CECE82E090E0F20107
:102690009183808385EF9FEFC6CE8F929F92AF92FA
:1026A000BF92CF92DF92EF92FF920F931F93CF933F
:1026B000DF93EA018C01060F171FF8018181833037
:1026C00098F082E090E09983888386EF9FEFDF9116
:1026D000CF911F910F91FF90EF90DF90CF90BF901F
:1026E000AF909F908F90089580919602909197025D
:1026F000892B61F081E090E020919802309199025D
:10270000232B11F490E080E0892B39F482E090E0F3
:10271000998388838EEF9FEFDACF42DE882309F416
:10272000DFC0F8018181813009F495C0E8F0823082
:1027300099F42091980230919902E0919602F091DB
:10274000970290E080E041E050E02817390709F057
:10275000BDC036DA811117C0789481E090E099838A
:10276000888390E080E0B3CF209198023091990265
:10277000E0919602F091970290E080E041E050E015
:102780002817390741F481E090E00E945B0A80E459
:102790000E94690AE1CF63817481672B11F0548331
:1027A000438301967396ECCFE0919602F0919702E5
:1027B000E00FF11F2381348122303105D9F42189C2
:1027C00032892F3F3F4FB1F4258136814091250159
:1027D000509126012417350761F5AF014F5E5F4F19
:1027E0006091290170912A0180912701909128011F
:1027F0000E94D21DEFEFCE1ADE0AEE0AFE0A0D5E2F
:102800001F4F409198025091990270E060E0C41609
:10281000D506E606F7063CF5009731F27894892B49
:1028200009F49BCF82E090E0998388838DEF9FEF3E
:102830004ECFC114D104E104F104E1F6232BD1F60B
:10284000CF015EDDE0919602F0919702E00FF11F5B
:10285000108A1786CFCF10E000E090E080E0C12C16
:10286000D12C7601CECF0097C9F610E000E0812C84
:10287000912C540183E0E82EF12C1AC0E0919602CD
:10288000F0919702E00FF11F83819481029749F440
:10289000F482E38282E090E00E945B0A80E40E947E
:1028A000630AFFEF8F1A9F0AAF0ABF0A0D5E1F4F20
:1028B0008091980290919902B0E0A0E08816990664
:1028C000AA06BB06DCF290E080E0A8CF63817481A9
:1028D0006230710511F4548343830196739635CFAA
:1028E00082E090E09983888385EF9FEFF0CE009798
:1028F000B9F48FEFFB01808320912F0130913001DB
:1029000043E1429FC001439F900D1124E091960244
:10291000F0919702E80FF91F8285FB0181830895EA
:102920000C94140A88E090E0FA019183808390E08F
:1029300080E008951092950210929402E6E9F2E088
:1029400086E0DF011D928A95E9F783E090E190939C
:102950009302809392020895809192029091930243
:1029600008952F923F924F925F926F927F928F9233
:102970009F92AF92BF92CF92DF92EF92FF920F930E
:102980001F93CF93DF93CDB7DEB760970FB6F89460
:10299000DEBF0FBECDBFF894E0919402F091950296
:1029A0003196F0939502E09394027894A091960268
:1029B000B0919702BA83A983109709F4FAC1E09104
:1029C0009802F0919902EF2B09F4F3C128874B8705
:1029D0005C876D877E879A878987B88BAF87312C14
:1029E000212CF12C512C412C80919802909199022C
:1029F0002816390610F4FF2029F1F89480919402EA
:102A00009091950201979093950280939402789407
:102A1000C20160960FB6F894DEBF0FBECDBFDF9146
:102A2000CF911F910F91FF90EF90DF90CF90BF90CB
:102A3000AF909F908F907F906F905F904F903F905E
:102A40002F900895B10190E080E087D4682EEF8543
:102A5000F889878181FD3DC0838194810397C9F501
:102A6000258136813C832B8389859A8528173907F0
:102A700081F5C101EFD8782E8823A9F1AF85B889F7
:102A80001F968D919C915097019621E01D964D9136
:102A90005C918417950709F020E02F83B12CA12CBD
:102AA000EF85F88982818A151B0419F014F0FF2044
:102AB000E9F0F885FF2309F46CC1AF85B889509619
:102AC0001C921E921F97662021F0B10190E080E0D9
:102AD00046D4FFEF2F1A3F0A2F8538892D5E3F4FCE
:102AE000388B2F8781CFB1E0BF83D8CFBED49E83F0
:102AF0008D83E885EE23E9F0772009F43CC1AF85AA
:102B0000B8891F968D919C91892B79F0BBE0BA9D75
:102B1000C001BB9D900D1124AF85B889ED91FC914A
:102B2000E80FF91F85819681F2D6BFEFAB1ABB0A79
:102B3000B7CF81E0772039F0EF85F8892785308994
:102B4000232B09F080E0F82EE12CA114B10439F414
:102B5000AF85B8891796EC90E4FAEE24E0F8BBE074
:102B6000BA9D6001BB9DD00C1124882309F424C1B7
:102B7000AF85B889ED91FC911197EC0DFD1D438156
:102B800054811D962D913C91429FC001439F900D11
:102B9000529F900D1124E1105DC0019690878783AC
:102BA00061E070E08781908529D5EF85F8892189DA
:102BB0003289008111810C0D1D1D2F3F320709F450
:102BC0004BC0BC01C9010E94131ED80116969C93EC
:102BD0008E931597AF85B889ED91FC911197EC0D07
:102BE000FD1D058116810115110509F4CDC0ED818A
:102BF000FE810E0F1F1F1A968C918A0DD8018C939F
:102C0000E1102FC00F5F1F4FAF85B889ED91FC9188
:102C1000EC0DFD1D12870187AF85B889ED91FC9100
:102C2000EC0DFD1D85819681892B09F4A4C080914E
:102C30002501909126012B813C812817390709F441
:102C400065C0772011F001851285912C812C1A82A4
:102C500019824AC00596A2CF21D6F80196838583B2
:102C6000B9CF8B859C85AD85BE85F8018183928324
:102C7000A383B4830B5F1F4FC7CFE080F180E80CC4
:102C8000F91CD70113966D917C9114978C918F3F0D
:102C900009F473C0E1E0F0E002C0EE0FFF1F8A9577
:102CA000E2F7CF01092E000CAA0BBB0BFB01408100
:102CB00051816281738184239523A623B72321E068
:102CC000892B8A2B8B2B09F420E0D8012C93D70178
:102CD00011968C91080F111DE981FA813196FA83C2
:102CE000E983F7E08F0E911CAF85B889ED91FC91D7
:102CF000EC0DFD1D828129813A818217130611F0A6
:102D00000CF0BBCF772011F0128701873F8133236E
:102D100091F1AF85B889ED91FC91EC0DFD1D61E05D
:102D200070E0878190856AD4AF85B889ED91FC9178
:102D3000EC0DFD1DE780F08445815681E1E0F0E077
:102D4000662011F0F0E0E0E00D811E819C01B101F0
:102D5000882799278E1B9F0B8BD32C01892B59F029
:102D6000EF85F88980819181C80ED91ED60115960C
:102D70008D919C91CCD5F12CD8CEF701418150E0BA
:102D8000C8010E946A2AA3CF86EF482E55245A9480
:102D9000CCCEEF85F889878590890196908B8787BF
:102DA000258536858217930709F08DCE108A178600
:102DB0008ACE512C412C21CE10E000E02DCF2F9255
:102DC0003F924F925F926F927F928F929F92AF92BB
:102DD000BF92CF92DF92EF92FF920F931F93CF9308
:102DE000DF93809196029091970210E000E0892B8A
:102DF000A9F0D6DA0AEF1FEF882381F0209098021D
:102E000030909902C0919602D0919702D12CC12C9A
:102E100010E000E02C143D04A9F47894C801DF917F
:102E2000CF911F910F91FF90EF90DF90CF90BF90C7
:102E3000AF909F908F907F906F905F904F903F905A
:102E40002F900895C6010E942A0E882309F18B81D4
:102E50009C810397E9F48F859889892BC9F0B60185
:102E600090E080E07AD221E030E0882311F030E079
:102E700020E044245524421A530AB12CA12C912C51
:102E8000812C8A818815190409F038F4188A1F8664
:102E90004FEFC41AD40A6396BDCFE881F981EA0DD9
:102EA000FB1D85819681892BA1F161E070E087810E
:102EB0009085A4D33C01D9D28C01E881F981EA0D37
:102EC000FB1D8185928525813681200F311FAC0144
:102ED000421B530B9A0147815085421B530B70E0F4
:102EE00060E00E94732AE881F981EA0DFB1DE7800A
:102EF000F084458156819301B601C201B9D28C019B
:102F0000892B39F0E881F981EA0DFB1D85819681D5
:102F1000FED45FEF851A950A8BE0A80EB11CB1CFE5
:102F20003FCA789408952F923F924F925F926F928A
:102F30007F929F92AF92BF92CF92DF92EF92FF92D9
:102F40000F931F93CF93DF9300D000D000D0CDB765
:102F5000DEB700919602109197029924939401157F
:102F6000110509F43EC0A0909802B090990218DAB9
:102F7000982E8823B1F11092970210929602109227
:102F800099021092980210929A0210929B028FEF6F
:102F90009FEFDC0180932F0190933001A0933101CA
:102FA000B093320178947AD31E830D83C12CD12C37
:102FB0007601C501B0E0A0E089839A83AB83BC832E
:102FC00022242A94322C89819A81AB81BC81C81633
:102FD000D906EA06FB06F4F0C80199D480E40E9401
:102FE000690A892D26960FB6F894DEBF0FBECDBFB5
:102FF000DF91CF911F910F91FF90EF90DF90CF90D5
:10300000BF90AF909F907F906F905F904F903F9058
:103010002F900895AD81BE8115968D919C91169744
:10302000209125013091260182179307D1F4519602
:103030008D919C91E6D5ED81FE8180819181B12CAD
:10304000A12C412C512C3201892B89F5BFEFCB1AD1
:10305000DB0AEB0AFB0AED81FE817396FE83ED83AA
:10306000B2CFC114D104E104F10429F7892B19F777
:10307000ED81FE81818992898F3F980709F021D5E2
:10308000AD81BE8152963C922E925197D4CF8A0D3B
:103090009B1DDC018D919C91009709F038D4BFEF06
:1030A0004B1A5B0A6B0A7B0AEBE0AE0EB11CAD81DA
:1030B000BE818D919C91119712964C9150E070E0D9
:1030C00060E044165506660677060CF320D4BECFA2
:1030D000CF93DF93EA0127DF811109C082E090E0FE
:1030E0009983888385EF9FEFDF91CF91089581E0E9
:1030F00090E00E945B0A81E090E09983888390E0F1
:1031000080E0F2CF10DF10929302109292020895A5
:1031100042E050E06AEB71E00C94790AFF920F9361
:103120001F93CF93DF938A01EC01C60FD71FF9805D
:10313000B4D20897F816190671F068F082E090E0B2
:10314000F801918380838EEF9FEFDF91CF911F91E4
:103150000F91FF9008956C817D818E819F814B81BD
:103160000E94100D811108C082E090E0F801918367
:10317000808384EF9FEFE9CFF9800E940B0D4F2DE4
:1031800050E0BE01685F7F4F0E946A2A89810E94D9
:103190007A0D81E090E0F8019183808390E080E0F7
:1031A000D4CFDF92EF92FF920F931F93CF93DF93D1
:1031B0008A01EC01C60FD71F0E940B0D7C01D9803C
:1031C0006CD2DD2059F0029721E030E0D8161906C4
:1031D00019F010F030E020E0232B79F482E090E049
:1031E000F801918380838EEF9FEFDF91CF911F9144
:1031F0000F91FF90EF90DF900895EF2841F482E067
:1032000090E0F8019183808384EF9FEFEECFF98007
:103210000E940B0D4F2D50E0BE016E5F7F4F0E944C
:103220006A2A89810E947A0D81E090E0F8019183F9
:10323000808390E080E0D9CF88E898E190939D0268
:1032400080939C02089580919C0290919D02089524
:103250000895FC0111821082938382830895DB011B
:103260001D921C92DC011296ED91FC9113977183D3
:10327000608313967C936E9312970895FC0180816E
:103280009181DB018D939C93A081B181109741F0D6
:103290008D919C9191838083892B11F4F383E28338
:1032A0000895FC0180819181DB018D939C93892B92
:1032B00011F473836283718360830895FC0111822A
:1032C0001082938382830895CF93DF9300D0CDB78C
:1032D000DEB71A821982F894BE016F5F7F4F83EACE
:1032E00092E0CCDF89819A81009709F010D389811F
:1032F0009A81892B89F7BE016F5F7F4F87EA92E041
:10330000BDDF89819A81009709F001D389819A8173
:10331000892B89F778940F900F90DF91CF910895C2
:10332000CF93DF9300D0CDB7DEB71A821982F8941D
:10333000BE016F5F7F4F8FE992E0A0DF89819A81A4
:10334000009709F0E4D289819A81892B89F77894D2
:103350000F900F90DF91CF91089581E0089590E054
:1033600080E00895EF92FF920F931F93CF93DF9326
:1033700000D0CDB7DEB71A82198280919E0207EF86
:103380001FEF8823A1F1F894BE016F5F7F4F87EA9A
:1033900092E074DF789489819A81EE24E394F12C91
:1033A000892B51F4F894BE016F5F7F4F83EA92E05E
:1033B00065DF7894F12CE12C89819A810EEF1FEF63
:1033C0000097A9F0FC014281538164E070E06BD664
:1033D0008C01892B61F0F89469817A81C701880F8B
:1033E000991F880F991F8D559D4F5BDF7894C801F9
:1033F0000F900F90DF91CF911F910F91FF90EF9061
:1034000008950F931F93CF93DF9300D000D0CDB7D3
:10341000DEB71C821B821A82198280919E0207EFFE
:103420001FEF8823C1F0AE014D5F5F4F64E070E095
:10343000CE010196ABD68C01892B69F4E981FA8122
:103440008B819C8193838283F89469817A818FE94F
:1034500092E005DF7894C8010F900F900F900F90C5
:10346000DF91CF911F910F910895B0D704960895E1
:103470008F929F92AF92BF92CF92DF92EF92FF9284
:103480000F931F93CF93DF9300D0CDB7DEB71A828F
:103490001982BC016F5F7F4F6330710598F0AA24D9
:1034A000AA94BA2CC5010F900F90DF91CF911F9174
:1034B0000F91FF90EF90DF90CF90BF90AF909F90D3
:1034C0008F9008954115510551F3480159018A0122
:1034D0006C01CBDF8815990511F7E114F104F9F2BD
:1034E0008E0D9F1DA816B906D0F280919E028823EA
:1034F000F1F0F894B501645071099701AE014F5F86
:103500005F4FC8010496D7D65C01892B71F489817D
:103510009A81F80193838283C601880F991F880FCF
:10352000991FB8018D559D4F9ADE7894BBCF87EFD8
:10353000A82EBB24BA94B6CFAF92BF92CF92DF929F
:10354000EF92FF920F931F93CF93DF9300D0CDB7ED
:10355000DEB71A821982892B09F047C061157105FF
:1035600009F443C04115510509F43FC02115310547
:1035700009F43BC001151105C1F180919E02882319
:10358000B9F179016A015B01F894BE016F5F7F4F69
:103590008FE992E073DE789489819A81009759F1DE
:1035A000DC0112966D917C91A80104969DD68C0148
:1035B000E981FA81D501ED93FC9382819381049690
:1035C000F6019183808351DFD7018D939C93C801CD
:1035D0000F900F90DF91CF911F910F91FF90EF907F
:1035E000DF90CF90BF90AF9008950FEF1FEFEFCF18
:1035F00007EF1FEFECCF0EEF1FEFE9CFCF93DF9375
:10360000EC01672B71F4EBD68C179D0760F0DED6CA
:103610002496C80FD91FDDD68C0F9D1FDF91CF9147
:103620000895DAD6F1CF90E080E0F8CF0F931F93A2
:10363000CF93DF9320919E0221112BC08B01EC01CF
:1036400083EA92E006DE87EA92E003DE8FE992E009
:1036500000DE97D00097C1F4C2D670E060E0CEDF04
:1036600043E351E062E070E07ED1009769F480911D
:10367000330190913401C5D6B801CE01FAD4009738
:1036800019F421E020939E02DF91CF911F910F91B9
:10369000089584EF9FEFF8CF9FC6A1C6CF93DF9325
:1036A000A1D6EC01892B11F40FDE3ADECE01DF91B9
:1036B000CF910895CF93DF9395D6EC01892B09F430
:1036C00003DECE01DF91CF91089580913301909177
:1036D00034010895CF93DF9380919E02D0E0C0E043
:1036E0008823D1F093D6EC01892BB1F4EDDD18DEFF
:1036F0008091330190913401E4D1E5D2EC01892B22
:1037000059F483EA92E0DADD87EA92E0D7DD8FE9C7
:1037100092E0D4DD10929E02CE01DF91CF91089508
:10372000EF92FF920F931F93CF93DF93EC017A01F7
:103730008B010F5F1F4F0E9DA0010F9D500D1E9D11
:10374000500D112470E060E00E94732A90E080E048
:10375000F0E0E0E02FEFE816F90639F4DF91CF91C1
:103760001F910F91FF90EF9008951A82198228837C
:10377000309711F0D283C1830196FE01C00FD11F93
:10378000EACFCF92DF92EF92FF920F931F93CF93E6
:10379000DF9307E813E00C7F43E050E065E371E05E
:1037A0008BE391E013D485E3E82E81E0F82E9BE3D0
:1037B000C92E91E0D92EC6EED3E0D7014D915D918F
:1037C0007D01F601619171916F01198308835D8319
:1037D0004C835B834A837F836E839B012F5F3F4FC4
:1037E000249FC001259F900D349F900D112499872F
:1037F00088870115110511F0C80192DF8885998528
:10380000080F191F2A96FBE3EF16F1E0FF06A9F651
:10381000EDEAF2E087EDDF011D928A95E9F710925B
:10382000AC021092AB0210920504109204041092A4
:1038300009041092080410920704109206041092D2
:103840000B0410920A0410920D0410920C041092B2
:103850000F0410920E04109213041092120410928E
:103860001104109210041092150410921404109276
:103870001704109216041092E3031092E2031092C0
:10388000E5031092E40390E080E0DF91CF911F9177
:103890000F91FF90EF90DF90CF9008950097F1F097
:1038A000F894ABE3B1E0E6EEF3E030E020E04D91D8
:1038B0005D9148175907A8F0428153814115510580
:1038C00081F08AE0829FF001839FF00D1124EA517C
:1038D000FC4F80819181009759F4789490E080E0CA
:1038E00008952F5F3F4F3A962330310501F7F5CF0A
:1038F000DC0111966D917C91718360834150510977
:1039000053834283FC012193CF017894089500975B
:1039100049F1DC018E91853041F4E091E403F091AE
:10392000E5033097F9F0CD0109948530D8F4282FBC
:1039300030E0F8948FEF8C938AE0829FF001839FB0
:10394000F00D1124EA51FC4F8081918112969C93D5
:103950008E931197B183A083828193810196938383
:10396000828378940895CF92DF92EF92FF920F9323
:103970001F93CF93DF939C0180EB92E08C7F4115E6
:10398000510509F49BC02115310509F497C0611553
:10399000710509F493C07A01AB01B9016D5F7F4FE6
:1039A0006C7F9B012F5F3F4F249F8001259F100D4F
:1039B000349F100D1124F8942091040430910504D3
:1039C000232B59F420910C0430910D04211531055D
:1039D00069F12017310708F058C020910E0430918A
:1039E0000F04232B91F420910C0430910D04820FCD
:1039F000931F20911604309117042115310509F405
:103A000041C02017310708F056C07894CFEFDFEFA0
:103A100086EF9FEFF701D183C083DF91CF911F9194
:103A20000F91FF90EF90DF90CF900895C3E0D0E02A
:103A3000C090AB02D090AC0224ED30E02C193D09CF
:103A40002017310710F32AE02C9FF0012D9FF00D75
:103A50001124EA51FC4F918380835583448353831F
:103A600042837783668311870087009709F058DEC9
:103A70000C0D1D1D1093AC020093AB02789490E0E6
:103A800080E0C8CFC4E0D0E0D3CFC3E0D0E02AE0EC
:103A90002C9FF0012D9FF00D1124EA51FC4F9183D2
:103AA000808355834483538342837783668300975F
:103AB00029F336DEE3CFC4E0D0E0E9CF8FEF9FEF0C
:103AC000ACCF9C010397029708F069C0F89484E09A
:103AD0009AE0482F50E0241735070CF44DC091E0D0
:103AE0008AE0829FF001839FF00D1124EA51FC4F80
:103AF000118210821582148213821282178216821A
:103B00009923B1F18091040490910504892BA9F4C3
:103B100020910C0430910D042115310571F0809134
:103B2000AB029091AC02821B930B9093AC028093FA
:103B3000AB0210920D0410920C0480910E0490912F
:103B40000F04892BA9F42091160430911704211534
:103B5000310571F08091AB029091AC02821B930B06
:103B60009093AC028093AB0210921704109216044B
:103B7000789490E080E00895949FF001959FF00D77
:103B80001124EA51FC4F40815181452B31F440858D
:103B90005185452B11F481509CCF90E0A1CF8FEF40
:103BA0009FEF08954115510549F1009739F16115CD
:103BB000710521F1F8942091E2033091E303232B66
:103BC000B9F42091E4033091E503232B89F4909319
:103BD000E3038093E2037093E5036093E403789436
:103BE00025E030E090E080E0FA0131832083089501
:103BF00078942FEF3FEF86EF9FEFF6CF8FEF9FEF99
:103C00000895059769F4F8941092E3031092E20383
:103C10001092E5031092E403789490E080E0089518
:103C20008FEF9FEF08956115710519F4F0E0E0E062
:103C300011C08530910581F4E091E203F091E30336
:103C40003097A1F3CB0101960995009779F3FC0118
:103C500085E08193CF0108959C01235031092230E2
:103C6000310520F72AE0289FD001299FB00D1124AB
:103C7000AA51BC4F2D913C911197232BB9F2169666
:103C80002D913C9117972617370780F2F8941296DA
:103C90002D913C9113972115310529F0ED91FC915F
:103CA0001197309711F47894C1CF418152811196C8
:103CB0005C934E932150310913963C932E931297A7
:103CC00081937894C7CFE4E8F3E08EE5DF011D929D
:103CD0008A95E9F7EDEAF2E087EDDF011D928A951A
:103CE000E9F71092AC021092AB02E6EEF3E082E349
:103CF000DF011D928A95E9F7E2EEF3E084E0DF014F
:103D00001D928A95E9F790E080E00895CF93DF93C4
:103D1000C0914101D0914201CF3FDC0759F408D452
:103D2000909342018093410197FF09C0D0934201D3
:103D3000C093410184EF9FEFDF91CF91089590E010
:103D400080E0FACF8230910528F48093180490E047
:103D500080E008958FEF9FEF08954F925F926F92EA
:103D60007F92AF92BF92CF92DF92EF92FF920F932A
:103D70001F93CF93DF9300D0CDB7DEB71A8219829D
:103D8000009709F479C06115710509F475C0209197
:103D900041013091420107EF1FEF2F3F3F4F09F4E0
:103DA00045C06B015C01412C512C3201F12CE12CFE
:103DB00010E000E09E012F5F3F4FA6014E195F0902
:103DC000B5016E0D7F1D80914101909142010FD48C
:103DD000892B09F04BC089819A81009741F4E11445
:103DE000F10429F420911804222309F442C0E80EBA
:103DF000F91EEC14FD04D0F480E8481684E8580657
:103E00008EE16806710420F560E070E0CB010E944D
:103E10003B272AE0420E511C611C711C0A3F4FEFE8
:103E2000140721F0043F8FEF1807A1F4C8010F9089
:103E30000F90DF91CF911F910F91FF90EF90DF9046
:103E4000CF90BF90AF907F906F905F904F9008950C
:103E500001EF1FEF81E090E0013F2FEF120711F01B
:103E600090E080E0892B09F4A5CFE0CF04EF1FEFAD
:103E7000DDCF0AEF1FEFDACF0FEF1FEFD7CF4F9253
:103E80005F926F927F92AF92BF92CF92DF92EF924A
:103E9000FF920F931F93CF93DF9300D0CDB7DEB780
:103EA0001A821982009709F478C06115710509F426
:103EB00074C0209141013091420107EF1FEF2F3F65
:103EC0003F4F09F444C06B015C01412C512C32017D
:103ED000F12CE12C10E000E09E012F5F3F4FA60186
:103EE0004E195F09B5016E0D7F1D809141019091C2
:103EF000420133D3892B09F04AC089819A81009706
:103F000041F4E114F10429F420911804222309F466
:103F100041C0E80EF91EEC14FD04C8F480E8481610
:103F200086E9580688E96806710418F560E070E0D3
:103F3000CB01A1D72AE0420E511C611C711C0E3F1F
:103F40004FEF140721F0043F8FEF1807A1F4C801C9
:103F50000F900F90DF91CF911F910F91FF90EF90F5
:103F6000DF90CF90BF90AF907F906F905F904F9019
:103F7000089502EF1FEF81E090E0023F2FEF12075C
:103F800011F090E080E0892B09F4A6CFE0CF04EF98
:103F90001FEFDDCF0EEF1FEFDACF0FEF1FEFD7CF01
:103FA00080914101909142018F3F980749F0B8D22A
:103FB000892B49F48FEF9FEF909342018093410149
:103FC00090E080E0089584EF9FEF0895CF92DF9214
:103FD000EF92FF920F931F93CF93DF9321E0411550
:103FE000510509F020E04150510921112CC0DC019C
:103FF000FB01D12CC12C21E022C03FEFC31AD30A10
:104000007D010D911D91E701EA80FB80E016F1062C
:10401000A8F420813181E280F380F182E082338351
:104020002283ED90FC9011979D0122503109E90106
:10403000F982E88211961C930E9320E03296C41602
:10404000D506D8F2D2CFDF91CF911F910F91FF907B
:10405000EF90DF90CF900895FC01680F791F90E0FA
:1040600080E0E617F70709F408952191820F911D6A
:10407000F8CF20911904211113C048DE009791F464
:1040800010921F0410921E0410921D0410921C0422
:1040900010921B0410921A0421E020931904089531
:1040A00084EF9FEF0895AF92BF92CF92DF92EF928D
:1040B000FF920F931F93CF93DF93009709F460C093
:1040C0004630510508F45CC020911904C7EFDFEFBA
:1040D000222309F449C08C01060F171FF801C08084
:1040E000D180C114D10409F44EC096012A5F3F4F1C
:1040F0004217530708F447C07C0180911E04909139
:104100001F0493838283B6016C5F7F4F5801A60E14
:10411000B71EC801A1DFF5019183808364E070E0E0
:10412000C8011BDEEC01892BF9F481E090E00ADE86
:10413000B601C801049611DEEC01892B91F462E00E
:1041400070E0C5010ADEEC01892B59F4C701DFDB01
:1041500080911E0490911F04019690931F048093F8
:104160001E0490E080E0EEDDCE01DF91CF911F9143
:104170000F91FF90EF90DF90CF90BF90AF90089598
:10418000CFEFDFEFF1CFC9EFDFEFEECF6F927F928E
:104190008F929F92AF92BF92CF92DF92EF92FF9257
:1041A0000F931F93CF93DF9300D000D0CDB7DEB72E
:1041B000009709F47AC04115510509F476C02091A1
:1041C000190407EF1FEF222309F44DC03A017B01C8
:1041D0005C0164E070E0CE01019651DE8C01892B18
:1041E00009F041C009811A810115110509F45AC06D
:1041F000480186E0880E911CB701680D791D8091F9
:104200004301909144010FDD6C01009709F450C007
:10421000A70170E060E00E94732A89819A81AB81D6
:10422000BC81EC0CFD1CF70181939193A193B19398
:104230007F0181E090E086DDB801C70120DE892B97
:1042400031F562E070E0C701800F911F18DE8C012C
:10425000892BE9F490E080E075DDF501D182C08220
:10426000F30191828082C8010F900F900F900F9000
:10427000DF91CF911F910F91FF90EF90DF90CF9042
:10428000BF90AF909F908F907F906F90089590E037
:1042900080E058DDF50111821082F3011182108255
:1042A000C60135DB09EF1FEFDECF0FEF1FEFDBCFCE
:1042B00006EF1FEFD8CF0097A1F04115510589F007
:1042C0002115310571F0F90136966E177F0748F018
:1042D000DC012D933C93DA01ED93FC9390E080E0B8
:1042E00008958FEF9FEF0895AF92BF92CF92DF9224
:1042F000EF92FF920F931F93CF93DF93009709F4F0
:104300005FC04115510509F45BC06530710508F4C3
:1043100057C020911904C7EFDFEF222391F1DC0190
:10432000CD90DC9011971296ED91FC9196012A5F49
:104330003F4FC9EFDFEF2617370719F5C0911A0471
:10434000D0911B04209749F521E030E030931B0405
:1043500020931A047A018C01F0931D04E0931C044D
:104360005601B4E0AB0EB11CB50176DE0A0D1B1D83
:10437000F801208131818217930729F5D701CD9269
:10438000DC92CE01DF91CF911F910F91FF90EF90C2
:10439000DF90CF90BF90AF90089520911C04309192
:1043A0001D042F5F3F4FCCEFDFEFE217F30790F2D2
:1043B000CBEFDFEF2E173F0768F2D0E0C0E0CACFA7
:1043C000CFEFDFEFDECFC3EFDFEFDBCF84E090E0B6
:1043D000089582E090E008958CEF9FEF089580E2C9
:1043E00090E0089510921F0410921E0410921D0474
:1043F00010921C0410921B0410921A0490E080E0AA
:104400000895909344018093430108958091190485
:10441000882391F0C5DD009789F410921F04109253
:104420001E0410921D0410921C0410921B04109282
:104430001A0410921904089590E080E008950097FE
:1044400049F06115710531F0FC0111821082FB0108
:10445000118210820895F3CF26E030E040E855E263
:1044600060E070E090E080E000C0892B19F48DE2FC
:1044700094E0CEC608951F920F920FB60F921124AA
:104480002F933F934F935F936F937F938F939F935C
:10449000AF93BF93EF93FF9386E997EE90938500D8
:1044A00080938400B7D0FF91EF91BF91AF919F911E
:1044B0008F917F916F915F914F913F912F910F90CD
:1044C0000FBE0F901F90189586E997EE9093850088
:1044D00080938400AFE6B0E08C918E7F8C93E0E80F
:1044E000F0E080818C7F8083E1E8F0E08081877E4E
:1044F000808380818460808380818C7F80838C91A5
:1045000081608C930895EFE6F0E0808190819E7F3A
:1045100090838170089581E0089510922004089599
:1045200068EE73E080E090E0A6D490E080E008952B
:1045300026E030E040E052EC61E070E090E080E0A6
:1045400094DF8DE294E09AD5892B21F08DE294E0FE
:10455000AFD5F7CF90E080E00895CF92DF92EF9251
:10456000FF920F931F93CF93DF936B017A01E901C1
:10457000198218828DE294E081D5892B69F1860138
:10458000CC24C39482E0D82E80912004811110C0E5
:104590008DE294E08DD50297B9F7C0922004F8011E
:1045A000D1928F0188819981019699838883ECCF7C
:1045B000888199818E159F0578F48DE294E078D5F5
:1045C0008F3F9807A9F3F80181938F018881998122
:1045D000019699838883ECCF90E080E0DF91CF91C2
:1045E0001F910F91FF90EF90DF90CF9008950F9360
:1045F0001F93CF93DF93EA0189018DE294E0ECD61B
:10460000F801D183C08390E080E0DF91CF911F91CA
:104610000F910895CF92DF92EF92FF92CF93DF93A5
:104620008091210491E0980F90932104882379F0E0
:1046300021E030E03093230420932204809321046E
:10464000DF91CF91FF90EF90DF90CF900895789415
:10465000C0914601D09147016E8D7F8D88A199A1AF
:10466000BAD120E030E040E85FE4BED26B017C01CB
:104670006A8D7B8D8C8D9D8DAED19B01AC01C70168
:10468000B6019AD07CD16B017C010E947C02B701FB
:10469000A60190E080E00E94A001F894809121049E
:1046A0008150CCCF0F931F93CF93DF931092DE04F2
:1046B0001092DD0416D4D0DEC0914601D09147019E
:1046C0001982188264E670E080E090E00E94220285
:1046D00070E060E090E080E00E94A400009709F0A4
:1046E0003AC00E94A703F8947894BE016A5D7F4F98
:1046F0008A819B810E94A700892B59F46FEF7FEF7D
:10470000CB010E9436010E941C02882311F081E037
:104710008AA7F894D9DE0E941F02882311F080E056
:1047200008C00E941C028111FACF81E09AA5911164
:10473000F6CF8093DD0478940E94560A8C01789419
:104740008091DD0481110CC00E942A040E940202A3
:10475000F89490E080E0DF91CF911F910F91089540
:104760000E9400020E941F028823D9F081E08093FA
:10477000DE049091DE0481E0911180E08093DD04FD
:104780008091DE048111BFDE0130110529F40E9401
:10479000560A892B09F4C1DE0E94560A8C01BBDE41
:1047A000CFCF0E941C028111E1CF81E09AA5911127
:1047B000DECF80E0DCCF5058BB27AA270ED0BFC188
:1047C000B0D130F0B5D120F031F49F3F11F41EF498
:1047D000A5C10EF4E095E7FB72C1E92FC1D180F3CA
:1047E000BA17620773078407950718F071F49EF5EE
:1047F000F0C10EF4E0950B2EBA2FA02D0B01B901DC
:1048000090010C01CA01A0011124FF27591B99F046
:10481000593F50F4503E68F11A16F040A22F232F52
:10482000342F4427585FF3CF469537952795A795A2
:10483000F0405395C9F77EF41F16BA0B620B730B49
:10484000840BBAF09150A1F0FF0FBB1F661F771FBA
:10485000881FC2F70EC0BA0F621F731F841F48F46F
:10486000879577956795B795F7959E3F08F0B3CFF5
:104870009395880F08F09927EE0F979587950895DF
:1048800091D180F09F3740F491110EF4A3C160E004
:1048900070E080E89FE3089526F01B16611D711DEE
:1048A000811D13C12DC1E7D008F481E008950CD01B
:1048B00046C13ED140F035D130F021F45F3F19F0D0
:1048C000FEC0511187C12AC14BD198F39923C9F376
:1048D0005523B1F3951B550BBB27AA276217730706
:1048E000840738F09F5F5F4F220F331F441FAA1FBA
:1048F000A9F333D00E2E3AF0E0E830D0915050407A
:10490000E695001CCAF729D0FE2F27D0660F771F27
:10491000881FBB1F261737074807AB07B0E809F009
:10492000BB0B802DBF01FF2793585F4F2AF09E3F9E
:10493000510568F0C4C04EC15F3FECF3983EDCF314
:10494000869577956795B795F7959F5FC9F7880F17
:10495000911D9695879597F90895E1E0660F771F69
:10496000881FBB1F621773078407BA0720F0621BFA
:10497000730B840BBA0BEE1F88F7E0950895F8D0FF
:1049800088F09F5790F0B92F9927B751A0F0D1F038
:10499000660F771F881F991F1AF0BA95C9F712C0C2
:1049A000B13081F016D1B1E0089513C1672F782F8F
:1049B0008827B85F39F0B93FCCF38695779567952E
:1049C000B395D9F73EF490958095709561957F4F9A
:1049D0008F4F9F4F0895E89409C097FB3EF4909540
:1049E0008095709561957F4F8F4F9F4F9923A9F0C8
:1049F000F92F96E9BB279395F69587957795679557
:104A0000B795F111F8CFFAF4BB0F11F460FF1BC09A
:104A10006F5F7F4F8F4F9F4F16C0882311F096E92D
:104A200011C0772321F09EE8872F762F05C06623DB
:104A300071F096E8862F70E060E02AF09A95660F94
:104A4000771F881FDAF7880F9695879597F908954D
:104A5000A9D080F09F3740F491110EF0BBC060E008
:104A600070E080E89FEB089526F41B16611D711D10
:104A7000811D2BC045C0990F0008550FAA0BE0E817
:104A8000FEEF16161706E807F907C0F01216130610
:104A9000E407F50798F0621B730B840B950B39F450
:104AA0000A2661F0232B242B252B21F408950A26B6
:104AB00009F4A140A6958FEF811D811D089597F9F6
:104AC0009F6780E870E060E00895882371F47723A1
:104AD00021F09850872B762F07C0662311F4992771
:104AE0000DC09051862B70E060E02AF09A95660F19
:104AF000771F881FDAF7880F9695879597F908959D
:104B00009F3F31F0915020F4879577956795B79541
:104B1000880F911D9695879597F908959FEF80ECE2
:104B2000089500240A941616170618060906089513
:104B300000240A9412161306140605060895092E79
:104B40000394000C11F4882352F0BB0F40F4BF2BE8
:104B500011F460FF04C06F5F7F4F8F4F9F4F089528
:104B600057FD9058440F551F59F05F3F71F047951E
:104B7000880F97FB991F61F09F3F79F08795089503
:104B8000121613061406551FF2CF4695F1DF08C022
:104B9000161617061806991FF1CF8695710561053F
:104BA00008940895E5DFA0F0BEE7B91788F4BB27A5
:104BB0009F3860F41616B11D672F782F8827985FED
:104BC000F7CF869577956795B11D93959639C8F37C
:104BD0000895E894BB2766277727CB0197F90895B6
:104BE0004ADF08F48FEF08950BD0A9CF9ADF28F0A1
:104BF0009FDF18F0952309F062CF90CF1124EACF00
:104C0000AFDFA0F3959FD1F3950F50E0551F629F42
:104C1000F001729FBB27F00DB11D639FAA27F00D15
:104C2000B11DAA1F649F6627B00DA11D661F829F3C
:104C30002227B00DA11D621F739FB00DA11D621F21
:104C4000839FA00D611D221F749F3327A00D611D3E
:104C5000231F849F600D211D822F762F6A2F112420
:104C60009F5750408AF0E1F088234AF0EE0FFF1F73
:104C7000BB1F661F771F881F91505040A9F79E3FAA
:104C8000510570F01CCFA6CF5F3FECF3983EDCF3EC
:104C9000869577956795B795F795E7959F5FC1F7E7
:104CA000FE2B880F911D9695879597F908959F93F0
:104CB00005D00F9007FCEE5F28C030CF59DFE8F336
:104CC000E894E0E0BB279F57F0F02AED3FE049EC85
:104CD00006C0EE0FBB0F661F771F881F28F0B23A81
:104CE00062077307840728F0B25A620B730B840BB8
:104CF000E3959A9572F7803830F49A95BB0F661F4A
:104D0000771F881FD2F79048FDCEEF93E0FF06C0D3
:104D1000A2EA2AED3FE049EC5FEB5FDD10DF0F9088
:104D2000039401FC9058E8E6F0E000C09F938F9355
:104D30007F936F93FF93EF939B01AC0155DFEF914E
:104D4000FF9105D02F913F914F915F914DCFDF9310
:104D5000CF931F930F93FF92EF92DF927B018C0111
:104D6000689405C0DA2EEF014BDFFE01E894A591AF
:104D70002591359145915591AEF3EF012EDDFE0160
:104D80009701A801DA9479F7DF90EF90FF900F91E7
:104D90001F91CF91DF9108951F920F920FB60F923E
:104DA00011242F933F938F939F93AF93BF93809141
:104DB000250490912604A0912704B09128043091F5
:104DC000240423E0230F2D3758F50196A11DB11DB2
:104DD000209324048093250490932604A093270411
:104DE000B09328048091290490912A04A0912B0467
:104DF000B0912C040196A11DB11D809329049093BC
:104E00002A04A0932B04B0932C04BF91AF919F91DF
:104E10008F913F912F910F900FBE0F901F9018957B
:104E200026E8230F0296A11DB11DD2CF3FB7F894FB
:104E30008091290490912A04A0912B04B0912C0414
:104E400026B5A89B05C02F3F19F00196A11DB11DE5
:104E50003FBFBA2FA92F982F8827BC01CD01620F21
:104E6000711D811D911D42E0660F771F881F991FDC
:104E70004A95D1F708958F929F92AF92BF92CF92A9
:104E8000DF92EF92FF926B017C01D0DF4B015C015E
:104E9000C114D104E104F104D9F0CBD2C7DF681901
:104EA00079098A099B09683E73408105910580F361
:104EB00021E0C21AD108E108F10888EE880E83E0EB
:104EC000981EA11CB11CC114D104E104F10431F7F6
:104ED000FF90EF90DF90CF90BF90AF909F908F901A
:104EE0000895789484B5826084BD84B5816084BD62
:104EF00085B5826085BD85B5816085BDEEE6F0E053
:104F0000808181608083E1E8F0E0108280818260AE
:104F10008083808181608083E0E8F0E0808181602F
:104F20008083E1EBF0E0808184608083E0EBF0E05F
:104F3000808181608083EAE7F0E080818460808303
:104F400080818260808380818160808380818068AD
:104F500080831092C1000895833081F028F481305D
:104F600099F08230A9F008958730A9F08830C9F00F
:104F70008430B1F4809180008F7D03C080918000E7
:104F80008F7780938000089584B58F7784BD0895CE
:104F900084B58F7DFBCF8091B0008F778093B00078
:104FA00008958091B0008F7DF9CFCF93DF9390E08B
:104FB000FC01E656FF4F249182559F4FFC018491DE
:104FC0008823C9F090E0880F991FFC01E453FF4F3C
:104FD000A591B491FC01EE53FF4FC591D49161119D
:104FE0000DC09FB7F8948C91209582238C93888173
:104FF000282328839FBFDF91CF910895623051F419
:105000009FB7F8943C91822F809583238C93E881FD
:105010002E2BEFCF8FB7F894EC912E2B2C938FBFC4
:10502000EACF1F93CF93DF93282F30E0F901EA579F
:10503000FF4F8491F901E656FF4FD491F901E255F3
:10504000FF4FC491CC23A1F0162F811185DFEC2FE7
:10505000F0E0EE0FFF1FEE53FF4FA591B4918FB715
:10506000F894EC91111108C0D095DE23DC938FBF2A
:10507000DF91CF911F910895DE2BF8CFFC01918D28
:10508000228D892F90E0805C9F4F821B91098F7346
:1050900099270895FC01918D828D981731F0828DAA
:1050A000E80FF11D858D90E008958FEF9FEF089533
:1050B000FC01918D828D981761F0A28DAE0FBF2FEC
:1050C000B11D5D968C91928D9F5F9F73928F90E042
:1050D00008958FEF9FEF0895FC01538D448D252F88
:1050E00030E0842F90E0821B930B541710F0CF9682
:1050F000089501970895FC01A48DA80FB92FB11D43
:10510000A35ABF4F2C91848D90E001968F739927FD
:10511000848FA689B7892C93A089B1898C918370DB
:1051200080648C93938D848D981306C00288F389D4
:10513000E02D80818F7D80830895CF93DF93EC01F4
:10514000888D8823B1F0AA89BB89E889F9898C9177
:1051500085FD03C0808186FD0CC00FB607FCF7CF2C
:105160008C9185FFF2CF808185FFEDCFCE01C3DF2B
:10517000EACFDF91CF910895EF92FF920F931F93A3
:10518000CF93DF93EC0181E0888F9B8D8C8D9813FA
:105190001AC0E889F989808185FF15C09FB7F89406
:1051A000EE89FF896083E889F98980818370806452
:1051B00080839FBF81E090E0DF91CF911F910F919D
:1051C000FF90EF900895F62E0B8D10E00F5F1F4FAC
:1051D0000F731127E02E8C8D8E110BC00FB607FCBC
:1051E000FACFE889F989808185FFF5CFCE0183DF89
:1051F000F2CFEB8DEC0FFD2FF11DE35AFF4FF08244
:105200009FB7F8940B8FEA89FB8980818062D0CFA9
:10521000CF92DF92EF92FF921F93CF93DF93EC0137
:105220006A017B01122FE889F98982E08083C11429
:1052300081EED806E104F10499F060E079E08DE3B5
:1052400090E0A701960105D121503109410951098A
:105250005695479537952795211580E1380790F0A9
:10526000E889F989108260E874E88EE190E0A7018E
:105270009601EFD0215031094109510956954795C2
:1052800037952795EC85FD853083EE85FF85208356
:10529000188EEC89FD891083EA89FB898081806101
:1052A0008083EA89FB89808188608083EA89FB8921
:1052B000808180688083EA89FB8980818F7D8083FB
:1052C000DF91CF911F91FF90EF90DF90CF900895E5
:1052D0001F920F920FB60F9211242F938F939F93CB
:1052E000EF93FF93E0913D04F0913E048081E091C3
:1052F0004304F091440482FD1BC0908180914604D8
:105300008F5F8F7320914704821741F0E09146042C
:10531000F0E0E35DFB4F958F80934604FF91EF91A2
:105320009F918F912F910F900FBE0F901F90189506
:105330008081F4CF1F920F920FB60F9211242F93FA
:105340003F934F935F936F937F938F939F93AF930D
:10535000BF93EF93FF938DE294E0CDDEFF91EF9149
:10536000BF91AF919F918F917F916F915F914F917D
:105370003F912F910F900FBE0F901F901895EDE267
:10538000F4E01382128288EE93E0A0E0B0E0848320
:105390009583A683B7838AEC91E09183808385EC23
:1053A00090E09587848784EC90E09787868780ECEF
:1053B00090E0918B808B81EC90E0938B828B82ECE0
:1053C00090E0958B848B86EC90E0978B868B118E8A
:1053D000128E138E148E0895AF92BF92CF92DF92E9
:1053E000EF92FF920F931F93CF93DF936C017B019A
:1053F0008B01040F151FEB015E01AE18BF08C0172B
:10540000D10759F06991D601ED91FC910190F0819D
:10541000E02DC6010995892B79F7C501DF91CF9160
:105420001F910F91FF90EF90DF90CF90BF90AF90C2
:1054300008950895DB018F939F9333D0BF91AF916F
:10544000A29F800D911DA39F900DB29F900D1124DE
:105450000895A1E21A2EAA1BBB1BFD010DC0AA1FB5
:10546000BB1FEE1FFF1FA217B307E407F50720F0CD
:10547000A21BB30BE40BF50B661F771F881F991F48
:105480001A9469F760957095809590959B01AC0191
:10549000BD01CF010895EE0FFF1F0590F491E02D9F
:1054A000099409D0A59F900DB49F900DA49F800DE5
:1054B000911D11240895A29FB001B39FC001A39F25
:1054C000700D811D1124911DB29F700D811D11243D
:1054D000911D0895FB01DC0102C001900D92415025
:1054E0005040D8F70895DC0101C06D934150504001
:0854F000E0F70895F894FFCFE6
:1054F800000040400000803F000000000000A04085
:10550800000000000000204100000000FEFFFFFF37
:1055180001E8030000FFFF00000000FFFFFFFFFF9E
:10552800FFFFFFFFFF01000100010020003000081D
:1055380000FFFFFFFF01F001FF00AD0CD90CFE00DA
:10554800930C140AFD00250C7F0CFC006B0C140A4C
:10555800F6005C0D140AF500320C9B0DF400250DC5
:10556800B20DDE00DE117714DD004D13140ADA00E7
:10557800660F6E0FD90092147E0FE2004E0E140AC9
:10558800E100890E140AE000FE0E140AD60068181D
:10559800140AD5000B11140AD4009710140AD3006A
:1055A8000810140AC0008D0F140AF000D118140A4C
:1055B800ED008E18140A00000000BC28EC296C28A5
:0855C8009D283E2858284A28BE
:00000001FF
